:020000040800F2
:1000000000000220B9020008C1020008C502000871
:10001000C9020008CD020008D1020008000000005B
:10002000000000000000000000000000D5020008F1
:10003000D902000800000000DD020008E10200080B
:10004000E5020008E5020008E5020008E5020008F4
:10005000E5020008E5020008E5020008E5020008E4
:10006000E5020008E5020008E5020008E5020008D4
:10007000E5020008E5020008E5020008E5020008C4
:10008000E5020008E5020008E5020008E5020008B4
:10009000E5020008E5020008E5020008E5020008A4
:1000A000E5020008E5020008E5020008E502000894
:1000B000E5020008E5020008E5020008E502000884
:1000C000E5020008E5020008E5020008E502000874
:1000D000E5020008E5020008E5020008E502000864
:1000E000E5020008E5020008E5020008E502000854
:1000F000E5020008E5020008E5020008E502000844
:10010000E5020008E5020008E5020008E502000833
:10011000E5020008E5020008E5020008E502000823
:10012000E5020008E5020008E5020008E502000813
:10013000E5020008E5020008E5020008E502000803
:10014000E5020008E5020008E5020008E5020008F3
:10015000E5020008E5020008E5020008E5020008E3
:10016000E5020008E5020008E5020008E5020008D3
:10017000E5020008E5020008E502000800000000B2
:10018000E5020008E502000800B583B001F02EFA90
:10019000384B394A1360394A136039490CE00A6810
:1001A0004B6801F10C04886803E01168196004339E
:1001B00004329842F9D82146324B9942EFD32E4B64
:1001C0001A68314B9A4204D12C4B1A682F4B9A4231
:1001D00000D0FEE7274B2E4A13602E4A13602E4BA9
:1001E0000AE0194651F8082B5B6802E00020106015
:1001F00004329A42FAD30B46284A9342F1D3244B55
:100200001B6813B9234B1B6803B1FEE701F046FAE4
:1002100001A8694600F0C8FF214C224B1C1BA4100A
:10022000002504E01E4B53F8253098470135AC42B9
:10023000F8DC1D4C1D4B1C1BA410002504E01A4BC0
:1002400053F8253098470135AC42F8DC0198009905
:1002500001F062FA0546164C164B1C1BA41004E074
:10026000013C134B53F824309847002CF8DC284607
:1002700000F036FFBABADECA00000020700000208D
:10028000E8020008000300087856341232547698C9
:100290007400002030020020000300081003000852
:1002A00010030008100300081003000810030008E2
:1002B000100300081003000808B5FFF765FF00BF32
:1002C000FEE700BFFEE700BFFEE700BFFEE700BF9E
:1002D000FEE700BFFEE700BFFEE700BFFEE700BF8E
:0802E000704700BFFEE700BFFC
:1002E800402C00080000002074000020402C00086A
:1002F80000000010000000107400002034020020EC
:080308000000001000000010CD
:10031000704700BF10B5044600F060FE064BA3FB1B
:100320000030800900F092F84FF0FF3021460022A3
:1003300000F04AF8002010BDD34D621008B50B4BF9
:100340001A6842F400721A601A6842F480621A60F5
:100350001A6842F480721A60032000F017F80F2028
:10036000FFF7D8FFFFF7D4FF002008BD003C024094
:10037000014B1868704700BF78000020024A1368DC
:1003800023F002031360704710E000E010B504464C
:10039000C31E042B03D90A48A42101F0B3F804F0CA
:1003A0000700084AD36823F4E0631B041B0C43EAEC
:1003B000002040F0BF6040F40030D06010BD00BFAE
:1003C0002029000800ED00E070B504460E461546F1
:1003D0000F2A03D91A48BC2101F094F80F2E03D933
:1003E0001748BD2101F08EF8164BDB68C3F30223DA
:1003F000C3F10702042A28BF0422191D062901D9C6
:10040000D81E00E00020012303FA02F2013A324034
:1004100002FA00F183405A1E2A400A43002C06DAF1
:1004200004F00F041201D2B2074B1A5570BD12012D
:10043000D2B204F1604404F5614484F8002370BD35
:100440002029000800ED00E014ED00E00138B0F1D3
:10045000807F0AD2064B5860F021064A82F82310AA
:100460000020986007221A6070470120704700BF83
:1004700010E000E000ED00E02DE9F84F80460F4667
:100480000B881BB9AC48C32101F03CF87B68012BF9
:1004900022D9112B20D0022B1ED0122B1CD0A74A00
:1004A000934219D002F58012934215D002F58012C2
:1004B000934211D0A2F5F81293420DD002F58012AA
:1004C000934209D002F58012934205D0032B03D04A
:1004D0009948C42101F016F8BB68022B03D996484D
:1004E000C52101F00FF8002420E1A1460125A54017
:1004F0003B6803EA050AAA4540F017817B68022B96
:1005000001D0122B4AD13B69C3B3092B36D0ABB310
:10051000A3B39BB393B3012B30D02FD0022B2DD09C
:100520002CD02BD0032B29D0042B27D026D025D09C
:10053000052B23D022D0092B20D0062B1ED0092B2F
:100540001CD0072B1AD019D018D0082B16D015D0D4
:1005500014D0092B12D011D00A2B0FD00ED00B2B98
:100560000CD00C2B0AD009D00D2B07D00C2B05D0AA
:100570000F2B03D07048D62100F0C4FFE6080836E0
:1005800058F8261004F0070080000F23834021EA6A
:1005900003023B698340134348F82630D8F8003003
:1005A0004FEA440B032606FA0BF6F64306EA03026B
:1005B0007B6803F0030303FA0BF31343C8F800301E
:1005C0007B685A1E012A03D9112B01D0122B1CD192
:1005D000FB68032B03D95848E92100F093FFD8F8B2
:1005E000083006EA0302FB6803FA0BF31343C8F86A
:1005F0000830D8F8043023EA05037D68C5F30015F8
:1006000005FA09F51D43C8F80450D8F80C303340FA
:10061000BE6806FA0BF61E43C8F80C607B6813F040
:10062000805F00F08280464A536C43F480435364F9
:10063000A308991CA2F5803252F8211004F003009F
:1006400080000F22824021EA02013E4A904537D0C5
:1006500002F58062904531D002F5806290452BD042
:1006600002F58062904525D002F5806290451FD04A
:1006700002F58062904519D002F58062904513D052
:1006800002F5806290450DD002F58062904507D05A
:1006900002F58062904501D1092212E00A2210E0A1
:1006A00008220EE007220CE006220AE0052208E0FC
:1006B000042206E0032204E0022202E0012200E01C
:1006C000002282400A4302331F4941F823201F4B76
:1006D0001A686FEA0A0303EA0201786810F4803F9F
:1006E00001D04AEA0201194A1160526803EA020184
:1006F000786810F4003F01D04AEA0201134A5160C1
:10070000926803EA0201786810F4801F01D04AEA77
:1007100002010E4A9160D2681340796811F4001FFB
:1007200001D04AEA0203094AD36001340F2C7FF654
:10073000DCAEBDE8F88F00BF54290008000011109E
:10074000003802400000024000380140003C0140F7
:1007500038B5044603680F2B03D9B348FD2100F0D8
:10076000D1FE236813F0010F61D06368012B06D915
:10077000052B04D0AC484FF4817100F0C3FEAB4BA5
:100780009B6803F00C03042B0AD0A84B9B6803F072
:100790000C03082B0ED1A54B5B6813F4800F09D016
:1007A000A24B1B6813F4003F41D06368012B40F05B
:1007B000FE813CE000229E4B1A70FFF7D9FD0546F2
:1007C00007E0FFF7D5FD401B41F28833984200F265
:1007D000F081964B1B6813F4003FF2D12279944BC1
:1007E0001A706368012B11D1FFF7C2FD054607E0BF
:1007F000FFF7BEFD401B41F28833984200F2DB81D7
:100800008A4B1B6813F4003FF2D010E0FFF7B0FDF5
:10081000054607E0FFF7ACFD401B41F288339842E4
:1008200000F2CB81814B1B6813F4003FF2D12368A7
:1008300013F0020F6DD0E368012B04D97A484FF40E
:10084000A17100F05FFE23691F2B04D9764840F2A6
:10085000431100F057FE754B9B6813F00C0F0AD044
:10086000724B9B6803F00C03082B1CD16F4B5B6829
:1008700013F4800F17D16D4B1B6813F0020F03D0D8
:10088000E368012B40F09B816848026822F0F80180
:100890002269F82393FAA3F3B3FA83F3DBB29A4005
:1008A0000A43026035E0E3680BB30122614B1A6032
:1008B000FFF75EFD054605E0FFF75AFD401B642883
:1008C00000F27F81594B1B6813F0020FF4D0574898
:1008D000036823F0F8012269F82393FAA3F3B3FA2B
:1008E00083F3DBB29A4041EA0203036011E0002285
:1008F000504B1A60FFF73CFD054605E0FFF738FD59
:10090000401B642800F25F81484B1B6813F0020F04
:10091000F4D1236813F0080F2ED06369012B04D99A
:1009200041484FF4C17100F0EDFD636993B10122BC
:10093000414B1A60FFF71CFD054605E0FFF718FD67
:10094000401B642800F24181384B5B6F13F0020FAB
:10095000F4D011E00022384B1A60FFF709FD05467C
:1009600005E0FFF705FD401B642800F230812F4BA6
:100970005B6F13F0020FF4D1236813F0040F6ED0F5
:10098000A368012B06D9052B04D027484FF4D67154
:1009900000F0B8FD254A136C43F080531364A2F5B0
:1009A000E432136843F480731360FFF7E1FC0546FB
:1009B00005E0FFF7DDFC401B642800F20A811F4BB5
:1009C0001B6813F4807FF4D000221D4B1A70FFF7D0
:1009D000CFFC054607E0FFF7CBFC401B41F2883314
:1009E000984200F2F880114B1B6F13F0020FF2D106
:1009F000227A134B1A70A368012B11D1FFF7B8FCB0
:100A0000054607E0FFF7B4FC401B41F288339842EB
:100A100000F2E380054B1B6F13F0020FF2D01EE0D3
:100A2000FFF7A6FC054615E09429000800380240AF
:100A30000238024000004742800E474200700040EA
:100A400070380240FFF794FC401B41F28833984213
:100A500000F2C580684B1B6F13F0020FF2D1A3693F
:100A6000022B04D965484FF4F87100F04BFDA369DF
:100A7000002B00F0B680604A926802F00C02082A4F
:100A800000F0B180022B7FD1E3693BB1B3F5800F59
:100A900004D05A4840F2F91100F034FD236A3F2B8C
:100AA00004D956484FF4FD7100F02CFD636AC03B39
:100AB000F02B04D9514840F2FB1100F023FDA36A4A
:100AC000022B0AD0042B08D0062B06D0082B04D00A
:100AD0004A484FF4FE7100F015FDE36A043B0B2B0E
:100AE00004D9464840F2FD1100F00CFD0022444BB1
:100AF0001A60FFF73DFC054604E0FFF739FC401B98
:100B0000642872D83C4B1B6813F0007FF5D1216A32
:100B1000626A47F6C07393FAA3F3B3FA83F3DBB2C6
:100B20009A401143A36A5B08013B4FF4403292FAAA
:100B3000A2F2B2FA82F2D2B293400B43E26943EAE4
:100B40000201E36A4FF0706292FAA2F2B2FA82F204
:100B5000D2B203FA02F241EA020343F00053264AFA
:100B600053600122264B1A60FFF702FC044604E0A2
:100B7000FFF7FEFB001B642839D81F4B1B6813F0DE
:100B8000007FF5D0002038BD00221D4B1A60FFF712
:100B9000EFFB044604E0FFF7EBFB001B642828D8BA
:100BA000154B1B6813F0007FF5D1002038BD0120E4
:100BB00038BD032038BD032038BD032038BD0120D7
:100BC00038BD032038BD032038BD032038BD0320C5
:100BD00038BD032038BD032038BD032038BD0320B5
:100BE00038BD002038BD012038BD032038BD0320AA
:100BF00038BD032038BD00BF0038024094290008EA
:100C00006000474270B504460D460368013B0E2B59
:100C100004D988484FF4187100F074FC072D04D9EA
:100C2000844840F2612100F06DFC834B1B6803F0A7
:100C30000F03AB4280F08B80EAB27F4B1A701B68C7
:100C400003F00F03AB4240F05181236813F0020F11
:100C50001DD0A368A3B1802B12D0902B10D0A02B55
:100C60000ED0B02B0CD0C02B0AD0D02B08D0E02B4C
:100C700006D0F02B04D06F4840F2772100F042FC00
:100C80006E498B6823F0F002A36813438B602368DE
:100C900013F0010F00F0E8806368022B04D9654867
:100CA00040F27E2100F02EFC6268012A05D1634BE0
:100CB0001B6813F4003F0ED11AE1022A05D15F4BE5
:100CC0001B6813F0007F06D114E15C4B1B6813F026
:100CD000020F00F0118159498B6823F0030313437D
:100CE0008B60FFF745FB05466368012B0FD107E0DA
:100CF000FFF73EFB401B41F28833984200F2FE8032
:100D00004E4B9B6803F00C03042BF1D1ACE0022B9B
:100D100017D107E0FFF72CFB401B41F288339842C4
:100D200000F2EE80454B9B6803F00C03082BF1D1D9
:100D30009AE0FFF71DFB401B41F28833984200F216
:100D4000E1803E4B9B6813F00C0FF2D18CE02368DE
:100D500013F0020F1DD0A368A3B1802B12D0902BEB
:100D600010D0A02B0ED0B02B0CD0C02B0AD0D02B83
:100D700008D0E02B06D0F02B04D02E4840F2C6213C
:100D800000F0C0FB2D498B6823F0F002A3681343E9
:100D90008B60236813F0010F5ED06368022B04D9C7
:100DA000244840F2CD2100F0ADFB6268012A05D154
:100DB000224B1B6813F4003F0ED1A5E0022A05D197
:100DC0001E4B1B6813F0007F06D19FE01B4B1B6876
:100DD00013F0020F00F09C8018498B6823F0030386
:100DE00013438B60FFF7C4FA06466368012B0FD1EB
:100DF00007E0FFF7BDFA801B41F28833984200F20A
:100E000089800E4B9B6803F00C03042BF1D123E087
:100E1000022B1CD106E0FFF7ABFA801B41F28833AE
:100E2000984279D8054B9B6803F00C03082BF2D14C
:100E300012E000BF94290008003C02400038024044
:100E4000FFF796FA801B41F28833984266D8354BFB
:100E50009B6813F00C0FF3D1EAB2334B1A701B6886
:100E600003F00F03AB425BD1236813F0040F19D0DA
:100E7000E36883B1B3F5805F0DD0B3F5A05F0AD00E
:100E8000B3F5C05F07D0B3F5E05F04D0274840F268
:100E90001D3100F037FB23498B6823F4E052E368EF
:100EA00013438B60236813F0080F1AD0236983B1B2
:100EB000B3F5805F0DD0B3F5A05F0AD0B3F5C05F86
:100EC00007D0B3F5E05F04D018484FF4497100F043
:100ED00019FB144A936823F46043216943EAC10370
:100EE00093600F20FFF716FA002070BD012070BD3F
:100EF000012070BD012070BD012070BD032070BDB8
:100F0000032070BD032070BD012070BD012070BDA5
:100F1000012070BD032070BD032070BD032070BD93
:100F2000012070BD00380240003C024094290008B6
:100F3000274B9B6803F00C03042B46D0082B01D0F1
:100F400024487047224B586800F03F00596801F46C
:100F500080014FF4800292FAA2F2B2FA82F2D2B287
:100F600031FA02F310D01C4BB3FBF0F3184A50686F
:100F700047F6C072104092FAA2F2B2FA82F2D2B2EE
:100F8000D04000FB03F30FE0124BB3FBF0F3104A29
:100F9000506847F6C072104092FAA2F2B2FA82F29A
:100FA000D2B2D04000FB03F3094A506800F440304D
:100FB0004FF4403292FAA2F2B2FA82F2D2B2D040A8
:100FC00001304000B3FBF0F070470348704700BFAA
:100FD000003802400024F40000127A0008B5FFF740
:100FE000A7FF094B9B6803F0F002F02393FAA3F3E9
:100FF000B3FA83F3DBB222FA03F3044AD35CD8409A
:10100000034B186008BD00BF003802408429000867
:101010000400002008B5034800F09AFA012000F00F
:101020005FF800BFC429000808B50D4B1B6813B951
:101030000C4A0B4B1A600A4B1A68C31C23F00303BB
:10104000134409498B4206D900F09AFC0C23036033
:101050004FF0FF3008BD02490B60104608BD00BFCD
:101060007C0000203402002000FC012030B5002567
:10107000132420462946ABBE0446204630BD00BF9F
:1010800038B5044600F07CFC0546FFF7EFFF28600A
:10109000204638BDB0F1FF3F03D108B5FFF7F0FFA0
:1010A00008BD704710B504460B4B186818B1836B28
:1010B0000BB900F0ABFC132C09D8084B53F83430B3
:1010C000B3F1FF3F05D0054800EBC40010BD002080
:1010D00010BD002010BD00BF6C00002004010020E6
:1010E00000B508B9044D00E0044D182420462946F7
:1010F000ABBE0446FEE700BF26000200230002004C
:101100002DE9F04184B0234F019703260396002375
:101110000293012401AD20462946ABBE80461E4BFA
:10112000C3F80080019703960423029320462946C2
:10113000ABBE8046194BC3F8008001970396082385
:10114000029320462946ABBE0446154B1C60B4F101
:10115000FF3F03D1114B1A68114B1A60002305E0C1
:101160004FF0FF310F4A42F833100133132BF7DDF4
:101170000C4B094A12681A6000225A600749096834
:101180009960DA600649096819615A6104B0BDE8DE
:10119000F08100BFD8290008AC00002080000020AA
:1011A000B000002004010020F0B583B005460C46D5
:1011B0002E4B00934F2301936F4615263046394638
:1011C000ABBE0646002E3ED1284B83F84F60009AF6
:1011D0003746314632E0E1B925480068184490F9B5
:1011E0000100002803DB092B03D1012002E00120CC
:1011F00000E0002008BB082E26DC222B01D0272B84
:1012000001D101321F461B4B43F826200136012134
:1012100013E0BB420ED016480068184490F9010054
:10122000002803DB092B03D1012302E0012300E0A6
:10123000002313B1002111700F46013292F90030E2
:10124000002BC8D100E000262EB9084B00221A70EE
:10125000084A13600136074B002243F826202E600F
:101260002360FFF74DFF03B0F0BD00BFB4000020C6
:10127000080000208400002030B585B00190029164
:10128000039201AD062420462946ABBE0446204603
:10129000FFF700FF05B030BD70B50E461546FFF7ED
:1012A00001FF30B900F06CFB092303604FF0FF3001
:1012B00070BD0446006831462A46FFF7DDFFB0F1F5
:1012C000FF3F03D0281A63680344636070BD00BF0A
:1012D000F0B583B00C461546FFF7E4FE30B900F0D8
:1012E0004FFB092303604FF0FF304DE00646022D0F
:1012F00006D900F045FB162303604FF0FF3043E0B2
:10130000012D13D14368E4180FD500F039FB1623E3
:1013100003607368002B2CDD002C2DDD00F030FB0A
:101320008B2303604FF0FF302EE00025022D0FD1FC
:10133000336802AF47F8083D0C2528463946ABBE56
:1013400005462846FFF7A6FEB0F1FF3F17D004443C
:101350003368009301946F460A2528463946ABBE90
:1013600005462846FFF796FE00280BDB74602046F2
:101370000AE04FF0FF3007E04FF0FF3004E04FF09D
:10138000FF3001E04FF0FF3003B0F0BD08B5FFF7CC
:101390009FFF08BD30B585B001900291039201AD69
:1013A000052420462946ABBE04462046FFF772FEC0
:1013B00005B030BD70B50E461446FFF773FE30B968
:1013C00000F0DEFA092303604FF0FF3070BD0546E0
:1013D000006831462246FFF7DDFF021E09DBA01A36
:1013E0006B6803446B60944205D10020FFF748FE10
:1013F00070BD4FF0FF3070BD30B583B002AD45F821
:10140000040D022420462946ABBE04462046FFF7C1
:1014100041FE03B030BD00BF38B50446FFF742FEC1
:1014200030B900F0ADFA092303604FF0FF3038BD4A
:101430000546013C012C09D8094B9A681B699A4260
:1014400004D14FF0FF330360002038BD2868FFF758
:10145000D3FF034610B94FF0FF322A60184638BD5B
:101460000401002070B50C46FFF71CFE30B900F0F7
:1014700087FA092303604FF0FF3070BD06466368AA
:1014800043F4005363604FF48063E3620C25284605
:101490003146ABBE05462846FFF7FCFDB0F1FF3FE5
:1014A00002D02061002070BD4FF0FF3070BD00BF42
:1014B00038B505460C46084600213C2200F02EFBBC
:1014C00028462146FFF7CEFF38BD00BF38B5FFF7ED
:1014D000E9FD28B900F054FA09230360002038BD63
:1014E0000546092420462946ABBE0446012C07D0F8
:1014F00000F046FA0446FFF7B9FD2060002038BD31
:10150000012038BD08B503460A460348194600F0D5
:1015100005F8FFF77FFD00BF242A00080FB400B5CF
:1015200083B004AB53F8042B01930848802100F0EA
:101530003DFC011E03DD054800F054F80146084655
:1015400003B05DF804EB04B0704700BFA4010020B5
:1015500010B5044600F0F9FB0146204600F042F8C1
:101560000248012100F03EF810BD00BF502A0008DB
:101570002DE9F04385B00F46194B1B6813F0010F9E
:1015800001D1084629E00446435C13BB04252846E4
:101590002146ABBE04461FE03546102E28BF10255D
:1015A000002306E014F8011B04AA1A4402F8101CD8
:1015B0000133AB42F6D304AA1344002203F8102CE3
:1015C000E9464FF0040840464946ABBE8046761BCC
:1015D00000E00E46002EDFD1384605B0BDE8F083AE
:1015E000F0ED00E008B5FFF7C3FF08BD08B500F057
:1015F00001F808BD0C4B1A6842F001021A60002184
:1016000099601A6822F0847222F480321A60074AC4
:101610005A601A6822F480221A60D9604FF0006282
:10162000034B9A60704700BF00380240103000241E
:1016300000ED00E010B592B0174A136C43F08053F0
:101640001364A2F5E432136843F4404313600123AA
:1016500001930293022407944FF480030893082314
:1016600009934FF4A8730A930B9407230C9301A8D2
:10167000FFF76EF80F230D930E9400230F934FF492
:10168000A05310934FF4805311930DA80521FFF739
:10169000B9FA12B010BD00BF0038024008B5FFF71C
:1016A000A9FFFEF74BFEFEF769FEFFF7C3FF08BD7B
:1016B00010B592B0174A136C43F080531364A2F52F
:1016C000E432136843F44043136001230693079305
:1016D00002240C944FF480030D9308230E934FF4CF
:1016E000A8730F9310940723119306A8FFF730F8FF
:1016F0000D2301930294002303934FF4A05304930A
:101700004FF48053059301A80521FFF77BFA12B02F
:1017100010BD00BF0038024008B5FFF7C9FF00F058
:10172000F7F8FEE7094B5A6C42F480425A649A6B10
:1017300042F001029A63064B064A1A60064A9A6012
:10174000DA601A6842F004021A60704700380240FA
:10175000600000A048E20300F1F3F2F19022094B8F
:101760001A700022A3F580331A704FF0E0431B6813
:101770000370C3F307224270C3F3074282701B0E4B
:10178000C3707047000002707022094B1A704FF04E
:10179000E0431B78DBB213F0010F04D113F0400FCC
:1017A00003D040207047012070470020704700BFE1
:1017B0000000027010B5FFF7E7FF4FF0807402E001
:1017C000FFF7E2FF013C402801D0002CF8D10CB912
:1017D0004FF4806010BD00BF00B583B002AB03E9D9
:1017E00003000E4A60231370BDF80430BDF80210E8
:1017F00003EB811303F0FF0309490B70BDF80430BC
:10180000BDF8020003EB8013C3F307230B70D02352
:101810001370FFF7CFFF03B05DF804FB0000027008
:10182000000001702DE9F04186B0314B1A6B42F097
:1018300008021A631A6B42F010021A634FF4F06345
:1018400001930227029701260396032504954FF082
:101850000C08CDF81480274801A9FEF70DFE4CF2C4
:1018600003030193029703960495CDF81480224C4C
:10187000204601A9FEF700FE4FF4C05301930297E2
:1018800003960495CDF81480204601A9FEF7F4FDD7
:1018900030230193029703960495CDF814802046D7
:1018A00001A9FEF7E9FD40230193029703970495F0
:1018B000CDF81480204601A9FEF7DEFD4FF4005359
:1018C0000193029603960495204601A9FEF7D4FDE4
:1018D0000A4B23600A4BA36003F1AB4303F5AF53FC
:1018E0001633E3604CF2FF73236106B0BDE8F0816C
:1018F0000038024000100240000C02400A0A80A694
:101900000F0FC0FF08B5FFF78DFFFFF70BFF08BDF6
:1019100000B585B0FFF7F6FF01A8FFF71FFF9DF8A0
:101920000430EC2B0DD19DF80530F12B09D19DF839
:10193000063033B99DF80730952B02D10E4800F0E0
:10194000A9F90023ADF80830ADF80A30ADF80C3035
:1019500004AB13E90300FFF73FFF402802D107481B
:1019600000F098F9002301E001339BB2B3F5006F5A
:10197000FAD305B05DF804FB802A0008942A000819
:10198000014B1868704700BF6C000020014900F04F
:10199000A7B800BF99200008002310B504460360D3
:1019A0004360836081814366C281036143618361D7
:1019B00019465C30082200F0B1F8054B6362054B14
:1019C000A362054BE362054B2462236310BD00BF95
:1019D000C51C0008E71C00081F1D0008431D000867
:1019E00070B568234D1E5D430E4605F1740100F08D
:1019F0009DF8044640B1002180E842000C30A06010
:101A000005F1680200F08AF8204670BD836910B5C0
:101A1000044633BB8364C3640365124B124A1B68DC
:101A20008262984204BF0123836100F01FF8606066
:101A3000204600F01BF8A060204600F017F80421B3
:101A4000E06000226068FFF7A7FFA068092101227B
:101A5000FFF7A2FFE06812210222FFF79DFF01239A
:101A6000A36110BD082C00088D190008F8B51B4BA8
:101A70001E68B369074613B93046FFF7C7FF4836FB
:101A8000B4687368013B04D4B4F90C5075B1683480
:101A9000F8E733682BB938460421FFF7A1FF30601F
:101AA00008B13668ECE70C233B60F8BD4FF6FF73D6
:101AB000E3810123A38165662560A56065602561DA
:101AC0006561A56104F15C002946082200F026F852
:101AD0006563A563A564E5642046F8BD082C00088D
:101AE0002DE9F8438046894600F14804002694B168
:101AF000A5686768013F0CD4AB89012B07D9B5F9FC
:101B00000E30013303D040462946C84706436835A6
:101B1000F0E72468EBE73046BDE8F883024403466B
:101B2000934202D003F8011BFAE7704770B5CC1C52
:101B300024F0030408340C2C38BF0C24002C064677
:101B400003DA0C233360002070BD8C42F9D3204AA5
:101B5000136810461946A1B10A68121B0ED40B2A4D
:101B600003D90A608B188C501FE08B420DBF5A6856
:101B70004A685A60026018BF0B4616E00B46496877
:101B8000E9E7144D2B681BB9304600F08BF828604C
:101B90003046214600F086F8421C0346D1D0C51CD1
:101BA00025F0030585420AD11C6003F10B001A1DC4
:101BB00020F00700821A0AD05142995070BD304679
:101BC000E91A00F06FF80130BBD02B46ECE770BD8E
:101BD000280200202402002070B50E46054618B1E8
:101BE00083690BB9FFF712FFAC68A389190701D508
:101BF000236983B92846214600F04EF958B14FF0C9
:101C0000FF3070BD002B0EDB236816F8012C1A7014
:101C1000236801332360A36816F8012B013BA360FE
:101C2000002AEFD116E0A269934209DB236816F877
:101C3000012C1A70236819780A29EAD1284602E093
:101C400016F8011C2846224600F0C0F8421C5042FB
:101C50005041D3E7002B15DAA269934208DB2368D1
:101C60000A221A702368197891420FD1284601E0A0
:101C700028460A21224600F0A9F8431C5842584140
:101C800030B1BCE723680A221A702368013323604D
:101C90000A2070BD024B01461868FFF79DBF00BFC8
:101CA0006C00002038B5064C00230546084623602A
:101CB000FFF7BAF9431C02D1236803B12B6038BD8A
:101CC0002C02002010B50C46B1F90E1000F08EFD6C
:101CD0000028ABBF636DA3891B1823F48053ACBFEE
:101CE0006365A38110BD2DE9F0411D468B89DB059D
:101CF00007460C46164605D5B1F90E100022022300
:101D000000F0F4F9A389B4F90E1023F48053A381F1
:101D1000384632462B46BDE8F04100F0ABB810B56E
:101D20000C46B1F90E1000F0E1F9431CA38915BF70
:101D3000606523F4805343F48053A38118BFA381CB
:101D400010BDB1F90E1000F013B9034613F8012BC2
:101D5000002AFBD1181A0138704730B5141E9BB009
:101D6000054604DA8B2303604FF0FF301CE04FF48C
:101D70000272ADF80C2014BF04F1FF322246029229
:101D800005924FF6FF7200910491ADF80E2069465E
:101D90001A461E9B00F0A8FA431CBCBF8B232B6085
:101DA00014B1009B00221A701BB030BD73B50093B4
:101DB000054B06460D461446186831462A4623460A
:101DC000FFF7CBFF02B070BD6C00002070B50D4670
:101DD0001446064618B183690BB9FFF717FE224B6C
:101DE0009C4201D1746808E0204B9C4201D1B46848
:101DF00003E01F4B9C4208BFF468A369A360A3895A
:101E00001A0709D523693BB123682069181A636949
:101E10009842EDB20FDB08E03046214600F03CF876
:101E20000028F1D04FF0FF3070BD3046214600F061
:101E300033F90028F6D1A368013BA36023685A1C3C
:101E400022601D7063690130984204D0A389DB07CA
:101E500007D50A2D05D13046214600F01DF900288E
:101E6000E0D1284670BD00BFA42B0008C42B000899
:101E7000E42B000838B5074C0546002020600846D2
:101E800011461A46FFF796FA431C02D1236803B1A4
:101E90002B6038BD2C020020314B70B51D68064602
:101EA0000C4625B1AB6913B92846FFF7AFFD2D4BA2
:101EB0009C4201D16C6808E02B4B9C4201D1AC687C
:101EC00003E02A4B9C4208BFEC68A3899AB2110731
:101ED0001DD4D50602D40922326038E0500712D54D
:101EE000616B41B104F14403994202D0304600F0E5
:101EF0005DF900236363A38923F02403A3810023F6
:101F0000636023692360A38943F00803A3812369E5
:101F10004BB9A38903F42073B3F5007F03D0304697
:101F2000214600F0F5F8A38913F0010205D0002244
:101F3000A26062695242A26103E0990758BF6269D8
:101F4000A26022694AB903F0800080B230B143F048
:101F50004003A3814FF0FF3070BD002070BD00BF73
:101F60006C000020A42B0008C42B0008E42B000800
:101F700038B5064C0023054608462360FFF74CFAA7
:101F8000431C02D1236803B12B6038BD2C02002012
:101F90008A892DE9F041054610070C4657D44B6855
:101FA000002B02DC0B6C002B18DDE66AB6B102F4E4
:101FB0008052002392B22F682B600AB1626D10E04C
:101FC000216A28460123B047411C024609D12B68EB
:101FD0003BB11D2B01D0162B47D12F600020BDE84F
:101FE000F081A3895B0705D56368D21A636B0BB1D7
:101FF000236CD21AE66A216A00232846B047461CA1
:10200000A38905D12A681AB11D2A01D0162A19D12F
:1020100000226260D9042269226004D5421C01D1E9
:102020002B6803B96065616B2F600029D6D004F17D
:102030004403994202D0284600F0B8F800206063BB
:10204000BDE8F08143F04003A381BDE8F0810F6952
:10205000002FC3D093070E6808BF4B690F6018BFED
:102060000023C7EB06088B6012E0A38943F040030E
:10207000A3814FF0FF30BDE8F0812846216AA66AAF
:102080003A464346B0470028EFDD0744C0EB080856
:10209000B8F1000FF1DCA1E738B50B6905460C4635
:1020A000DBB118B183690BB9FFF7B0FC0C4B9C4254
:1020B00001D16C6808E00B4B9C4201D1AC6803E095
:1020C000094B9C4208BFEC68B4F90C302BB1284690
:1020D0002146BDE83840FFF75BBF002038BD00BF98
:1020E000A42B0008C42B0008E42B000838B5074CCB
:1020F000054600202060084611461A46FFF746F9BB
:10210000431C02D1236803B12B6038BD2C02002090
:10211000F0B58B899D0791B006460C4626D4B1F9DF
:102120000E10002909DAA38913F0800F4FF0000583
:1021300014BF40274FF480670DE001AA00F068FB50
:102140000028F0DB029D05F47045A5F500514D42D5
:102150004D414FF4806730463946FFF7E7FC60B9E0
:10216000A3899A051DD443F00203A38104F1470318
:10217000236023610123636113E00B4BB362A389E6
:10218000206043F08003A381206167614DB1304638
:10219000B4F90E1000F04EFB18B1A38943F001030F
:1021A000A38111B0F0BD00BF8D19000830B5002922
:1021B0003DD051F8042C0B1F1D49002AB8BF9B18B5
:1021C0000A680C4612B95A600B6030BD93420DD2BA
:1021D00019685818904201BF5A5852181A6042683C
:1021E0005A60236030BD994203D80A4651680029DD
:1021F000F9D1146815199D420AD11B682344D018DF
:102200008842136013D10868034413604B680DE0E3
:1022100002D90C23036030BD1C681819884204BF22
:1022200008684968596004BF00191860536030BDE0
:10223000280200202DE9F0478E68B34282460C4602
:102240009046994640D38A8912F4906F3AD0256817
:1022500009696F1A6569022305EB450595FBF3F5DE
:102260007B1C4B449D4238BF1D4653050FD5294664
:10227000FFF75CFC064698B121693A4600F0F9FA8E
:10228000A38923F4906343F08003A38113E02A46DB
:1022900000F015FB064670B950462169FFF786FF2E
:1022A0000C23CAF80030A38943F04003A3814FF008
:1022B000FF30BDE8F087266165613E44ED1B266076
:1022C000A5604E46B14500D24E4632462068414692
:1022D00000F0DAFAA3689B1BA36023681E44266003
:1022E0000020BDE8F08700002DE9F0439DB00646D0
:1022F00003938B891C060D4690460CD50B6953B988
:102300004021FFF713FC2860286110B90C233360CB
:10231000CCE040236B610023099320238DF8293002
:1023200030238DF82A3043461C4613F8012B1AB986
:10233000B4EB08090FD002E0252AF5D1F8E73046C2
:10234000294642464B46FFF775FF013000F0A98051
:10235000099B4B4409932378002B00F0A2800023B3
:102360004FF0FF3204930793059206938DF8533094
:102370001A9304F101084446DFF848912178484651
:10238000052200F067FA08F10108049B30B1C9EB9F
:1023900000000122824013430493ECE7D80644BFB7
:1023A00020228DF85320190744BF2B228DF853208B
:1023B00022782A2A02D0079923460EE0039A111D9B
:1023C00012680391002ABBBF524243F002030792F6
:1023D0000792B8BF049301340AE01C460133227807
:1023E000303A092A03D80A2000FB0121F5E70791BA
:1023F00023782E2B1AD163782A2B0AD1039B1A1D1E
:102400001B680392002BB8BF4FF0FF3302340593D3
:102410000CE0611C00220C4601312378303B092B73
:1024200003D80A2000FB0232F5E70592DFF8988016
:1024300021784046032200F00DFA38B1049AC8EB27
:1024400000004023834013430493013421781A4849
:102450008DF82810062204F1010800F0FBF988B17C
:10246000164B33B9039B073323F007030833039359
:1024700013E003AB0093304604A92A46104BAFF398
:10248000008007E003AB0093304604A92A460C4BBA
:1024900000F092F8421C074603D0099B3B44099385
:1024A00041E7AB895B0601D4099801E04FF0FF30AA
:1024B0001DB0BDE8F08300BF162C0008000000002E
:1024C000352200080C2C0008122C00082DE9F843D6
:1024D00091461F468A680B69DDF820809342B8BF99
:1024E0001346C9F8003091F8432006460C4612B155
:1024F0000133C9F800302368990642BFD9F800308B
:102500000233C9F80030256815F006051CD094F890
:1025100043302268003318BF012392061FD5E1180B
:102520005A1C302081F84300224494F8451082F868
:102530004310023313E03046394604F119020123F7
:10254000C047013007D00135E368D9F800209B1A55
:102550009D42F0DBDBE74FF0FF30BDE8F88330460B
:10256000394604F14302C0470130F4D02268D9F85B
:102570000050E36802F00602042A08BF5D1B2269CE
:10258000A3680CBF25EAE57500259342C4BF9B1ADA
:10259000ED184FF00009A9450ADA3046394604F132
:1025A0001A020123C0470130D5D009F10109F2E731
:1025B0000020BDE8F88300002DE9FF410C461746D6
:1025C000227E6E2A984606460A9B01F1430100F0DE
:1025D000A98012D8632A23D00AD8002A00F0B68036
:1025E000582A40F0C58084F84520DFF8F8E151E032
:1025F000642A1ED0692A1CD0BAE0732A00F0AA808F
:1026000009D86F2A2BD0702A40F0B280226842F09D
:102610002002226039E0752A21D0782A35D0A7E03F
:102620001A68111D1960136884F8423004F14205DC
:10263000A2E020681A6810F0800F03D0101D186007
:10264000136805E04506F9D5101D1860B2F9003091
:10265000002B3BDA2D225B4284F8432036E02068D1
:102660001A6810F0800F03D0101D1860136804E082
:102670004006F9D5101D18601388227EDFF864E14A
:102680006F2A0CBF08220A221CE07822DFF858E1EA
:1026900084F845202268186812F0800F00F10405C4
:1026A0001D6001D0036802E05506FBD50388D00702
:1026B00044BF42F0200222601BB9226822F02002AF
:1026C00022601022002084F8430002E0DFF814E1C9
:1026D0000A226568A560002DA2BF206820F00400D2
:1026E000206003B965B10D46B3FBF2F002FB103375
:1026F0001EF8033005F8013D03460028F4D100E040
:102700000D46082A0BD12368DA0708D523696268C9
:102710009A42DEBF302305F8013C05F1FF35491B25
:1027200021612EE025681A68606915F0800F03D0DA
:10273000151D1D60136808E015F0400F02F1040537
:102740001D60136801D0188000E018600023236129
:102750000D4616E01A68111D196015686268284652
:10276000002100F077F808B1401B6060636804E066
:1027700004F1420584F8422001232361002384F8F8
:102780004330CDF800803046214603AA3B46FFF790
:102790009DFE013002D14FF0FF301FE03046394638
:1027A0002A462369C0470130F5D023689B0705D42A
:1027B000E068039B9842B8BF18460FE00025E36825
:1027C000039A9B1A9D42F3DA3046394604F1190206
:1027D0000123C0470130DED00135F0E704B0BDE889
:1027E000F08100BF1D2C00082E2C000838B5074CC6
:1027F000054600202060084611461A46FEF74CFDAB
:10280000431C02D1236803B12B6038BD2C02002089
:1028100038B5074C00230546084611462360FEF7ED
:1028200047FE431C02D1236803B12B6038BD00BFB3
:102830002C02002038B5064C0023054608462360CC
:10284000FEF744FE431C02D1236803B12B6038BD60
:102850002C02002010B5C9B202449042034606D0B3
:102860001C788C4200F10100F7D1184610BD002001
:1028700010BD10B5431E0A44914204D011F8014B1B
:1028800003F8014FF8E710BD814210B501EB0203D8
:1028900001D3421E0BE09842FBD28118D21AD342D8
:1028A00004D013F8014D01F8014DF8E710BD99422D
:1028B00004D011F8014B02F8014FF8E710BDF8B54C
:1028C000074615460E4621B91146BDE8F840FFF708
:1028D0002DB91AB9FFF76AFC2846F8BD00F015F8C3
:1028E000A8420ED238462946FFF720F9044650B1D7
:1028F00031462A46FFF7BDFF38463146FFF756FC02
:1029000001E03046F8BD2046F8BD51F8040C00281F
:10291000BEBF091851F8043CC018043870470000C5
:102920002E2E2F73797374656D2F7372632F7374EA
:102930006D333266342D68616C2F73746D3332667B
:102940003478785F68616C5F636F727465782E634A
:10295000000000002E2E2F73797374656D2F737233
:10296000632F73746D333266342D68616C2F73740A
:102970006D3332663478785F68616C5F6770696F59
:102980002E630000000000000102030401020304A2
:10299000060708092E2E2F73797374656D2F7372D5
:1029A000632F73746D333266342D68616C2F7374CA
:1029B0006D3332663478785F68616C5F7263632E62
:1029C0006300000061626F727428292C20657869A9
:1029D00074696E672E2E2E003A7474002F746D7019
:1029E000000000002C2066756E6374696F6E3A20DB
:1029F00000000000617373657274696F6E20222598
:102A00007322206661696C65643A2066696C652092
:102A1000222573222C206C696E6520256425732580
:102A2000730A00006173736572745F706172616D27
:102A30002829206661696C65643A2066696C6520A6
:102A4000222573222C206C696E652025640A000003
:102A50000A0000006D61696E28617267633D25643C
:102A60002C20617267763D5B000000002C20000086
:102A700022257322000000005D293B0A00000000AF
:102A800054797065203D204B3946314730385530F8
:102A9000420D000045726173655F4F4B0D000000F1
:102AA000002020202020202020202828282828201E
:102AB0002020202020202020202020202020202016
:102AC000208810101010101010101010101010107E
:102AD000100404040404040404040410101010106E
:102AE0001010414141414141010101010101010138
:102AF000010101010101010101010101101010108A
:102B00001010424242424242020202020202020209
:102B1000020202020202020202020202101010105D
:102B20002000000000000000000000000000000085
:102B30000000000000000000000000000000000095
:102B40000000000000000000000000000000000085
:102B50000000000000000000000000000000000075
:102B60000000000000000000000000000000000065
:102B70000000000000000000000000000000000055
:102B80000000000000000000000000000000000045
:102B90000000000000000000000000000000000035
:102BA0000000000000000000000000000000000025
:102BB0000000000000000000000000000000000015
:102BC0000000000000000000000000000000000005
:102BD00000000000000000000000000000000000F5
:102BE00000000000000000000000000000000000E5
:102BF00000000000000000000000000000000000D5
:102C000000000000430000000C000020232D302BAA
:102C10002000686C4C0065666745464700303132DD
:102C20003334353637383941424344454600303134
:0F2C300032333435363738396162636465660094
:102C4000785634120024F400A02A00080000000086
:102C5000A42B0008C42B0008E42B0008000000008F
:102C6000000000000000000000000000042C00082C
:102C70000000000000000000000000000000000054
:102C80000000000000000000000000000000000044
:102C90000000000000000000000000000000000034
:102CA0000000000000000000000000000C000020F8
:042CB000325476988C
:040000050800018965
:00000001FF
