:020000040800F2
:10000000000002204D030008550300085D030008AE
:10001000650300086D030008750300080000000078
:100020000000000000000000000000007D03000848
:1000300085030008000000008D03000895030008F8
:10004000A1030008A1030008A1030008A103000800
:10005000A1030008A1030008A1030008A1030008F0
:10006000A1030008A1030008A1030008A1030008E0
:10007000A1030008A1030008A1030008A1030008D0
:10008000A1030008A1030008A1030008A1030008C0
:10009000A1030008A1030008A1030008A1030008B0
:1000A000A1030008A1030008A1030008A1030008A0
:1000B000A1030008A1030008A1030008A103000890
:1000C000A1030008A1030008A1030008A103000880
:1000D000A1030008A1030008A1030008A103000870
:1000E000A1030008A1030008A1030008A103000860
:1000F000A1030008A1030008A1030008A103000850
:10010000A1030008A1030008A1030008A10300083F
:10011000A1030008A1030008A1030008A10300082F
:10012000A1030008A1030008A1030008A10300081F
:10013000A1030008A1030008A1030008A10300080F
:10014000A1030008A1030008A1030008A1030008FF
:10015000A1030008A1030008A1030008A1030008EF
:10016000A1030008A1030008A1030008A1030008DF
:10017000A1030008A1030008A1030008000000007B
:10018000A1030008A103000880B596B000AF02F0FB
:1001900011F85D4B5D4A1A605D4B5C4A1A605D4B1D
:1001A0007B6523E07B6D1A1D7A651B68FB647B6DA4
:1001B0001A1D7A651B68BB647B6D1A1D7A651B6806
:1001C0007B64FB6C7B63BB6C3B637B6CFB623B6B5C
:1001D000BB6207E0BB6A1A1DBA627A6B111D7963B4
:1001E00012681A60FA6ABB6A9A42F3D87B6D4A4A6F
:1001F0009342D7D3444B1B68484A934204D1444BA3
:100200001B68474A934200D0FEE7464B3F4A1A60BC
:10021000454B3E4A1A60454B3B6519E03B6D1A1D44
:100220003A651B683B643B6D1A1D3A651B68FB63AE
:100230003B6C7B62FB6B3B627B6AFB6104E0FB69AE
:100240001A1DFA6100221A603A6AFB699A42F6D8CE
:100250003B6D374A9342E1D3324B1B68002B03D1ED
:10026000314B1B68002B00D0FEE701F0D7FF07F1F0
:1002700008023B1D1046194601F026FB2D4A2E4B65
:10028000D31A9B10BB6100237B6107E02A4A7B697C
:1002900052F8233098477B6901337B61BA697B69E7
:1002A0009A42F3DC254A264BD31A9B10BB610023EC
:1002B0007B6107E0224A7B6952F8233098477B69CB
:1002C00001337B61BA697B699A42F3DCBA687B6867
:1002D0001046194602F068FFB8631A4A1A4BD31A3F
:1002E0009B103B613B69FB6008E0FB68013B164AE1
:1002F00052F823309847FB68013BFB60FB68002BFA
:10030000F3DCB86B01F086FB00000020BABADECA4D
:1003100004010020A8030008C00300087856341226
:1003200032547698080100203C410020C0030008A8
:10033000D0030008D0030008D0030008D003000851
:10034000D0030008D0030008D003000880B500AF38
:10035000FFF71AFF80B400AFFEE700BF80B400AF24
:10036000FEE700BF80B400AFFEE700BF80B400AF7F
:10037000FEE700BF80B400AFFEE700BF80B400AF6F
:10038000FEE700BF80B400AFFEE700BF80B400AF5F
:10039000FEE700BF80B400AFBD465DF8047B704748
:0803A00080B400AFFEE700BFCE
:1003A800844F00080000002008010020844F000846
:1003B800000000100000001008010020404100204B
:0803C80000000010000000100D
:1003D00080B500AF0E4A0E4B1B6843F400731360E8
:1003E0000B4A0B4B1B6843F480631360084A084BAD
:1003F0001B6843F480731360032000F0F9F80F20AA
:1004000000F00EF800F006F80023184680BD00BF8B
:10041000003C024080B400AFBD465DF8047B7047ED
:1004200080B582B000AF786001F0E4F90246094B74
:10043000A3FB02239B09184600F026F94FF0FF307A
:100440007968002200F0F4F8002318460837BD460A
:1004500080BD00BFD34D621080B400AF034B1B685A
:100460001846BD465DF8047B704700BF0C010020B4
:1004700080B400AF044A044B1B6823F002031360EE
:10048000BD465DF8047B704710E000E080B485B0A5
:1004900000AF78607B6803F00703FB600C4BDB6800
:1004A000BB60BA684FF6FF031340BB60FB681A02DB
:1004B000BB68134343F0BF6343F40033BB60044A9B
:1004C000BB68D3601437BD465DF8047B704700BF3E
:1004D00000ED00E080B400AF044BDB6803F4E063A0
:1004E0001B0A1846BD465DF8047B704700ED00E02E
:1004F00080B483B000AF03463960FB7197F90730D1
:10050000002B0BDA0D49FB7903F00F03043B3A682B
:10051000D2B21201D2B20B441A7609E0084997F917
:1005200007303A68D2B21201D2B20B4483F80023EA
:100530000C37BD465DF8047B704700BF00ED00E05E
:1005400000E100E080B489B000AFF860B9607A6083
:10055000FB6803F00703FB61FB69C3F10703042B8E
:1005600028BF0423BB61FB690433062B02D9FB6956
:10057000033B00E000237B61BB69012202FA03F325
:10058000013B1A46BB681A407B699A407B6901218E
:1005900001FA03F3013B19467B680B4013431846ED
:1005A0002437BD465DF8047B704700BF80B582B03C
:1005B00000AF78607B68013BB3F1807F01D30123FA
:1005C0000FE00A4A7B68013B53604FF0FF300F2178
:1005D000FFF78EFF054B00229A60044B07221A603A
:1005E000002318460837BD4680BD00BF10E000E07C
:1005F00080B582B000AF78607B68072B0FD07B6836
:10060000062B0CD07B68052B09D07B68042B06D009
:100610007B68032B03D00548A42101F019FD7868FD
:10062000FFF734FF0837BD4680BD00BF784C000897
:1006300080B586B000AF0346B9607A60FB730023D3
:100640007B617B680F2B03D90E48BC2101F000FDB4
:10065000BB680F2B03D90B48BD2101F0F9FCFFF754
:1006600039FF78617869B9687A68FFF76BFF0246ED
:1006700097F90F3018461146FFF73AFF1837BD4675
:1006800080BD00BF784C000880B582B000AF7860B4
:100690007868FFF78BFF034618460837BD4680BDD4
:1006A00080B586B000AF786039600023FB6000231E
:1006B000BB6000233B613B681B689BB2002B03D1EE
:1006C0002848C32101F0C4FC3B685B68002B35D08F
:1006D0003B685B68012B31D03B685B68112B2DD0E8
:1006E0003B685B68022B29D03B685B68122B25D0E6
:1006F0003B685B681C4A934220D03B685B681B4A9E
:1007000093421BD03B685B68194A934216D03B6802
:100710005B68184A934211D03B685B68164A934263
:100720000CD03B685B68154A934207D03B685B6816
:10073000032B03D00B48C42101F08AFC3B689B6863
:10074000002B0BD03B689B68012B07D03B689B6854
:10075000022B03D00348C52101F07AFC00237B6102
:1007600041E200BFAC4C0008000011100000211055
:1007700000003110000012100000221000003210A2
:100780007B69012202FA03F3FB603B681A68FB688D
:100790001340BB60BA68FB689A4240F021823B6814
:1007A0005B68022B04D03B685B68122B40F0BB8077
:1007B0003B681B69002B00F093803B681B69092B89
:1007C00000F08E803B681B69002B00F089803B683D
:1007D0001B69002B00F084803B681B69002B7FD0D5
:1007E0003B681B69002B7BD03B681B69012B77D0D2
:1007F0003B681B69012B73D03B681B69022B6FD0D0
:100800003B681B69022B6BD03B681B69022B67D0CE
:100810003B681B69032B63D03B681B69042B5FD0CB
:100820003B681B69042B5BD03B681B69042B57D0CA
:100830003B681B69052B53D03B681B69052B4FD0C8
:100840003B681B69092B4BD03B681B69062B47D0C3
:100850003B681B69092B43D03B681B69072B3FD0C2
:100860003B681B69072B3BD03B681B69072B37D0C4
:100870003B681B69082B33D03B681B69082B2FD0C2
:100880003B681B69082B2BD03B681B69092B27D0C1
:100890003B681B69092B23D03B681B690A2B1FD0BF
:1008A0003B681B690A2B1BD03B681B690B2B17D0BD
:1008B0003B681B690C2B13D03B681B690C2B0FD0BA
:1008C0003B681B690D2B0BD03B681B690C2B07D0B9
:1008D0003B681B690F2B03D08248D62101F0B8FB7F
:1008E0007B69DA087B68083253F822303B617B6908
:1008F00003F007039B001A460F239340DB433A693A
:1009000013403B613B681B697A6902F00702920061
:1009100093403A6913433B617B69DA087B6808328C
:10092000396943F822107B681B683B617B695B0077
:100930001A4603239340DB433A6913403B613B680B
:100940005B6803F003037A69520093403A691343EA
:100950003B617B683A691A603B685B68012B0BD08E
:100960003B685B68022B07D03B685B68112B03D0A8
:100970003B685B68122B43D13B68DB68002B0FD0D0
:100980003B68DB68012B0BD03B68DB68022B07D090
:100990003B68DB68032B03D05248E92101F058FB88
:1009A0007B689B683B617B695B001A46032393402D
:1009B000DB433A6913403B613B68DB687A6952006C
:1009C00093403A6913433B617B683A699A607B685C
:1009D0005B683B617B69012202FA03F3DB433A69FE
:1009E00013403B613B685B6803F010031A097B69A5
:1009F00002FA03F33A6913433B617B683A695A6030
:100A00007B68DB683B617B695B001A46032393408C
:100A1000DB433A6913403B613B689B687A6952004B
:100A200093403A6913433B617B683A69DA603B68FB
:100A30005B6803F08053002B00F0D2802A4A2A4BD7
:100A40005B6C43F480435364284A7B699B08023300
:100A500052F823303B617B6903F003039B001A4685
:100A60000F239340DB433A6913403B617B68204A84
:100A7000934251D07B681F4A934231D07B681E4A13
:100A800093422BD07B681D4A934225D07B681C4A39
:100A900093421FD07B681B4A934219D07B681A4A45
:100AA000934213D07B68194A93420DD07B68184A51
:100AB000934207D07B68174A934201D109232CE067
:100AC0000A232AE0082328E0072326E0062324E05F
:100AD000052322E0042320E003231EE002231CE080
:100AE00001231AE0AC4C00080038024000380140F5
:100AF000000002400004024000080240000C0240D6
:100B0000001002400014024000180240001C024085
:100B1000002002400024024000237A6902F0030210
:100B2000920093403A6913433B6132497B699B08C9
:100B300002333A6941F823202F4B1B683B61BB68A5
:100B4000DB433A6913403B613B685B6803F48033E5
:100B5000002B03D03A69BB6813433B61264A3B69CB
:100B60001360254B5B683B61BB68DB433A6913400C
:100B70003B613B685B6803F40033002B03D03A69A8
:100B8000BB6813433B611C4A3B6953601A4B9B682B
:100B90003B61BB68DB433A6913403B613B685B6880
:100BA00003F48013002B03D03A69BB6813433B6105
:100BB000114A3B699360104BDB683B61BB68DB43C8
:100BC0003A6913403B613B685B6803F40013002BF8
:100BD00003D03A69BB6813433B61074A3B69D36062
:100BE0007B6901337B617B690F2B7FF6C9AD1837B9
:100BF000BD4680BD00380140003C014080B584B056
:100C000000AF78600B467B807B88002B04D10A48BC
:100C100040F2851101F01CFA7B681A697B88134049
:100C2000002B02D00123FB7301E00023FB73FB7B4D
:100C300018461037BD4680BDAC4C000880B598B052
:100C400000AF78600023FB657B681B680F2B03D91E
:100C5000A448FD2101F0FCF97B681B6803F0010347
:100C6000002B7BD07B685B68002B0CD07B685B68BB
:100C7000012B08D07B685B68052B04D099484FF4A2
:100C8000817101F0E5F9984B9B6803F00C03042B8C
:100C90000BD0954B9B6803F00C03082B12D1924BA1
:100CA0005B6803F48003002B0CD08F4B1B6803F4AC
:100CB0000033002B05D07B685B68012B01D001233A
:100CC000B9E24BE0894B00221A70FFF7C5FBF865CB
:100CD0000AE0FFF7C1FB0246FB6DD31A41F28832EE
:100CE000934201D90323A6E27F4B1B6803F4003330
:100CF000002BEED17D4A7B685B68DBB213707B68AA
:100D00005B68012B15D1FFF7A7FBF8650AE0FFF739
:100D1000A3FB0246FB6DD31A41F28832934201D9FC
:100D2000032388E2704B1B6803F40033002BEED0E2
:100D300014E0FFF791FBF8650AE0FFF78DFB024630
:100D4000FB6DD31A41F28832934201D9032372E238
:100D5000654B1B6803F40033002BEED17B681B68E6
:100D600003F00203002B00F096807B68DB68002B09
:100D700008D07B68DB68012B04D05A484FF4A1717E
:100D800001F066F97B681B691F2B04D9554840F2B6
:100D9000431101F05DF9544B9B6803F00C03002BE9
:100DA0000BD0514B9B6803F00C03082B2AD14E4B00
:100DB0005B6803F48003002B24D14B4B1B6803F0CA
:100DC0000203002B05D07B68DB68012B01D00123D7
:100DD00031E24548444B1B6823F0F8027B681B69ED
:100DE000F821B965B96D91FAA1F17965796D396527
:100DF000396DB1FA81F1F964F96CC9B28B401343D2
:100E0000036048E07B68DB68002B2ED0384B012262
:100E10001A60FFF721FBF86508E0FFF71DFB0246AB
:100E2000FB6DD31A642B01D9032304E22E4B1B68FC
:100E300003F00203002BF0D02B482B4B1B6823F050
:100E4000F8027B681B69F821B964B96C91FAA1F1C9
:100E50007964796C3964396CB1FA81F1F963F96BB1
:100E6000C9B28B401343036015E0214B00221A6086
:100E7000FFF7F2FAF86508E0FFF7EEFA0246FB6DBD
:100E8000D31A642B01D90323D5E1174B1B6803F058
:100E90000203002BF0D17B681B6803F00803002BD2
:100EA00047D07B685B69002B08D07B685B69012BAE
:100EB00004D00C484FF4C17101F0CAF87B685B693B
:100EC000002B20D00B4B01221A60FFF7C5FAF86502
:100ED00012E0FFF7C1FA0246FB6DD31A642B0BD95F
:100EE0000323A8E1EC4C000800380240023802401D
:100EF00000004742800E47428B4B5B6F03F00203BA
:100F0000002BE6D015E0894B00221A60FFF7A4FA07
:100F1000F86508E0FFF7A0FA0246FB6DD31A642BD0
:100F200001D9032387E1804B5B6F03F00203002BA1
:100F3000F0D17B681B6803F00403002B7BD07B6837
:100F40009B68002B0CD07B689B68012B08D07B68CA
:100F50009B68052B04D076484FF4D67101F078F8E1
:100F6000714A714B1B6C43F080531364714A714B8F
:100F70001B6843F480731360FFF76EFAF86508E0AE
:100F8000FFF76AFA0246FB6DD31A642B01D90323DB
:100F900051E1684B1B6803F48073002BF0D0664B63
:100FA00000221A70FFF758FAF8650AE0FFF754FAC2
:100FB0000246FB6DD31A41F28832934201D90323D2
:100FC00039E1594B1B6F03F00203002BEED15A4A53
:100FD0007B689B68DBB213707B689B68012B15D123
:100FE000FFF73AFAF8650AE0FFF736FA0246FB6DBA
:100FF000D31A41F28832934201D903231BE14A4BB1
:101000001B6F03F00203002BEED014E0FFF724FA6D
:10101000F8650AE0FFF720FA0246FB6DD31A41F2A9
:101020008832934201D9032305E13F4B1B6F03F044
:101030000203002BEED17B689B69002B0CD07B68F0
:101040009B69012B08D07B689B69022B04D0384830
:101050004FF4F87100F0FCFF7B689B69002B00F0F7
:10106000E980314B9B6803F00C03082B00F0E08013
:101070007B689B69022B40F0C4807B68DB69002B96
:1010800009D07B68DB69B3F5800F04D0284840F2B3
:10109000F91100F0DDFF7B681B6A3F2B04D924485F
:1010A0004FF4FD7100F0D4FF7B685B6ABF2B04D95D
:1010B0007B685B6AB3F5D87F04D91D4840F2FB1109
:1010C00000F0C6FF7B689B6A022B10D07B689B6A8E
:1010D000042B0CD07B689B6A062B08D07B689B6A2C
:1010E000082B04D012484FF4FE7100F0B1FF7B686A
:1010F000DB6A032B03D97B68DB6A0F2B04D90C480E
:1011000040F2FD1100F0A4FF0C4B00221A60FFF723
:10111000A3F9F86514E0FFF79FF90246FB6DD31AB7
:10112000642B0DD9032386E000380240800E47422D
:10113000EC4C0008007000407038024060004742EC
:101140003F4B1B6803F00073002BE4D13C487B68E5
:101150001A6A7B685B6A47F6C071B963B96B91FA2A
:10116000A1F17963796B3963396BB1FA81F1F96275
:10117000F96AC9B28B401A437B689B6A5B08013BE2
:101180004FF44031B962B96A91FAA1F17962796A92
:101190003962396AB1FA81F1F961F969C9B28B40F2
:1011A0001A437B68DB691A437B68DB6A4FF0706126
:1011B000B961B96991FAA1F17961796939613969DE
:1011C000B1FA81F1F960F968C9B28B40134343F079
:1011D000005343601B4B01221A60FFF73DF9F8658D
:1011E00008E0FFF739F90246FB6DD31A642B01D9E9
:1011F000032320E0124B1B6803F00073002BF0D098
:1012000018E0104B00221A60FFF726F9F86508E095
:10121000FFF722F90246FB6DD31A642B01D9032391
:1012200009E0074B1B6803F00073002BF0D101E0CD
:10123000012300E0002318466037BD4680BD00BF93
:10124000003802406000474280B584B000AF78604B
:1012500039600023FB607B681B68002B03D07B6830
:101260001B680F2B04D97A484FF4187100F0F0FE78
:101270003B68002B19D03B68012B16D03B68022B32
:1012800013D03B68032B10D03B68042B0DD03B6878
:10129000052B0AD03B68062B07D03B68072B04D0F0
:1012A0006B4840F2612100F0D3FE6A4B1B6803F0EB
:1012B0000F023B689A4280F0D180664B3A68D2B206
:1012C0001A70644B1B6803F00F023B689A4201D00E
:1012D0000123E8E17B681B6803F00203002B31D097
:1012E0007B689B68002B24D07B689B68802B20D078
:1012F0007B689B68902B1CD07B689B68A02B18D0C8
:101300007B689B68B02B14D07B689B68C02B10D087
:101310007B689B68D02B0CD07B689B68E02B08D047
:101320007B689B68F02B04D0494840F2772100F09D
:101330008FFE4949484B9B6823F0F0027B689B680D
:1013400013438B607B681B6803F00103002B00F0E4
:101350004D817B685B68002B0CD07B685B68012B40
:1013600008D07B685B68022B04D0394840F27E21AC
:1013700000F06EFE7B685B68012B07D1364B1B6863
:1013800003F40033002B15D101238CE17B685B68EB
:10139000022B07D1304B1B6803F00073002B09D1DF
:1013A000012380E12C4B1B6803F00203002B01D1C9
:1013B000012378E12849284B9B6823F003027B68CE
:1013C0005B6813438B60FFF747F8F8607B685B68E6
:1013D000012B12D10AE0FFF73FF80246FB68D31A4F
:1013E00041F28832934201D903235CE11A4B9B6896
:1013F00003F00C03042BEED1F8E07B685B68022B52
:1014000012D10AE0FFF728F80246FB68D31A41F22E
:101410008832934201D9032345E10F4B9B6803F0C7
:101420000C03082BEED1E1E00AE0FFF715F80246C5
:10143000FB68D31A41F28832934201D9032332E187
:10144000054B9B6803F00C03002BEED1CEE000BFF0
:10145000EC4C0008003C0240003802407B681B68EE
:1014600003F00203002B31D07B689B68002B24D053
:101470007B689B68802B20D07B689B68902B1CD05E
:101480007B689B68A02B18D07B689B68B02B14D01E
:101490007B689B68C02B10D07B689B68D02B0CD0DE
:1014A0007B689B68E02B08D07B689B68F02B04D09E
:1014B0007F4840F2C62100F0CBFD7E497D4B9B6802
:1014C00023F0F0027B689B6813438B607B681B688A
:1014D00003F00103002B7CD07B685B68002B0CD0F1
:1014E0007B685B68012B08D07B685B68022B04D0AB
:1014F0006F4840F2CD2100F0ABFD7B685B68012BAB
:1015000007D16C4B1B6803F40033002B15D101236A
:10151000C9E07B685B68022B07D1664B1B6803F050
:101520000073002B09D10123BDE0624B1B6803F05F
:101530000203002B01D10123B5E05E495D4B9B689E
:1015400023F003027B685B6813438B60FEF784FF24
:10155000F8607B685B68012B12D10AE0FEF77CFF24
:101560000246FB68D31A41F28832934201D9032321
:1015700099E0504B9B6803F00C03042BEED128E05C
:101580007B685B68022B12D10AE0FEF765FF02461A
:10159000FB68D31A41F28832934201D9032382E0D7
:1015A000444B9B6803F00C03082BEED111E00AE0DA
:1015B000FEF752FF0246FB68D31A41F2883293428B
:1015C00001D903236FE03B4B9B6803F00C03002B16
:1015D000EED1394B3A68D2B21A70374B1B6803F020
:1015E0000F023B689A4201D001235CE07B681B68D4
:1015F00003F00403002B25D07B68DB68002B18D098
:101600007B68DB68B3F5805F13D07B68DB68B3F57C
:10161000A05F0ED07B68DB68B3F5C05F09D07B6844
:10162000DB68B3F5E05F04D0214840F21D3100F0E3
:101630000FFD20491F4B9B6823F4E0527B68DB6859
:1016400013438B607B681B6803F00803002B26D0D4
:101650007B681B69002B18D07B681B69B3F5805F22
:1016600013D07B681B69B3F5A05F0ED07B681B6944
:10167000B3F5C05F09D07B681B69B3F5E05F04D0A8
:101680000B484FF4497100F0E3FC0A49094B9B6891
:1016900023F460427B681B69DB0013438B600F20DF
:1016A000FEF7BEFE002318461037BD4680BD00BFC2
:1016B000EC4C000800380240003C024080B495B079
:1016C00000AF00237B640023FB6400233B64002302
:1016D000BB64454B9B6803F00C03042B06D0082B1E
:1016E00007D0002B76D1414BBB6476E0404BBB6406
:1016F00073E03D4B5B6803F03F037B643A4B5B68F0
:1017000003F480034FF48002FA63FA6B92FAA2F2B8
:10171000BA63BA6B7A637A6BB2FA82F23A633A6B63
:10172000D2B2D340002B1CD0314A7B6CB2FBF3F217
:101730002D4B596847F6C0730B4047F6C071F962EC
:10174000F96A91FAA1F1B962B96A7962796AB1FA72
:1017500081F13962396AC9B2CB4003FB02F3FB6401
:101760001BE0224A7B6CB2FBF3F21F4B596847F631
:10177000C0730B4047F6C071F961F96991FAA1F1A4
:10178000B961B96979617969B1FA81F13961396908
:10179000C9B2CB4003FB02F3FB64134B5B6803F459
:1017A00040334FF44032FA60FA6892FAA2F2BA601B
:1017B000BA687A607A68B2FA82F23A603A68D2B26B
:1017C000D34001335B003B64FA6C3B6CB2FBF3F338
:1017D000BB6402E0054BBB6400BFBB6C18465437CA
:1017E000BD465DF8047B7047003802400024F400D9
:1017F00000127A0080B584B000AFFFF75FFF0146AA
:101800000F4B9B6803F0F003F022FA60FA6892FA3B
:10181000A2F2BA60BA687A607A68B2FA82F23A6082
:101820003A68D2B2D340074AD35C21FA03F3064A9E
:101830001360054B1B6818461037BD4680BD00BFBE
:1018400000380240DC4C00080400002080B500AFE6
:10185000024800F02DFC012000F0DCF81C4D0008CF
:1018600080B584B000AF7860144B1B68002B02D1A8
:10187000124B134A1A60114B1B68FB607B680333E1
:1018800023F003037B600D4B1A687B6813440D4AF9
:10189000934207D902F020FA02460C2313604FF05E
:1018A000FF3306E0054B1A687B681344034A136054
:1018B000FB6818461037BD4680BD00BF10010020F0
:1018C0004041002000FC0120B0B590B000AF78602E
:1018D00039600023FB630023BB634B4BFB604F234A
:1018E0003B611523FB6107F10C03BB61FC69BD691A
:1018F00020462946ABBE04467C617B69FB62FB6ADD
:10190000002B63D1404B002283F84F20FB687B63A0
:1019100000233B6353E0BB6B002B2FD1BB6A3B62C0
:101920003A4B1A683B6A013313441B785BB2002BB5
:1019300002DB3B6A092B01D1012300E00023002BCD
:101940003AD1FB6B082B00DD40E0BB6A222B02D0B2
:10195000BB6A272B08D1BB6A3B637B6B01337B637C
:101960007B6B1B785BB2BB62FB6B5A1CFA6328492A
:101970007A6B41F823200123BB631DE0BA6A3B6BFD
:101980009A4212D0BB6A7B62204B1A687B6A013391
:1019900013441B785BB2002B02DB7B6A092B01D15D
:1019A000012300E00023002B06D000233B637B6B68
:1019B00000221A700023BB637B6B01337B637B6B5C
:1019C0001B785BB2BB62BB6A002BA4D1FB6B002B04
:1019D00008D10D4B00221A700D4B0B4A1A60FB6B9D
:1019E0000133FB630A4AFB6B002142F823107B683A
:1019F000FA6B1A603B68064A1A6000F053F800BFA1
:101A00004037BD46B0BD00BFC00100209C00002093
:101A100010020020B0B586B000AF78607B68002B64
:101A200001D1084B00E0084B7B617B6918223A61C9
:101A3000FB603C69FD6820462946ABBE0446BC609D
:101A4000FEE700BF260002002300020080B582B03E
:101A500000AF7860114B1B68002B09D00F4B1B683F
:101A60009B6B002B04D10D4B1B68184602F07AF9D2
:101A70007B68132B01D900230CE0094A7B6852F8DC
:101A80003330B3F1FF3F01D1002303E07B68DB007B
:101A9000034A134418460837BD4680BD00010020A4
:101AA00014010020B0B58EB000AF364B7B6003232D
:101AB000FB600023BB6001233B633B1DFB623C6B6F
:101AC000FD6A20462946ABBE0446BC62BB6A2E4A6C
:101AD00013602C4B7B600323FB600423BB6001235A
:101AE0007B623B1D3B627C6A3D6A20462946ABBE59
:101AF0000446FC61FB69254A1360224B7B6003238B
:101B0000FB600823BB600123BB613B1D7B61BC699B
:101B10007D6920462946ABBE04463C613B691C4AB0
:101B200013601B4B1B68B3F1FF3F03D1174B1B68BE
:101B3000174A136000237B6308E0164A7B6B4FF063
:101B4000FF3142F833107B6B01337B637B6B132BCC
:101B5000F3DD0D4B1B680F4A13600E4B00225A60D9
:101B60000A4B1B680B4A93600A4B0022DA60084B51
:101B70001B68084A1361074B00225A613837BD467B
:101B8000B0BD00BF304D0008B4010020B8010020F6
:101B9000BC01002014010020B0B584B000AF1323B5
:101BA000FB600023BB60FC68BD6820462946ABBED5
:101BB00004467C607B6800BF18461037BD46B0BD48
:101BC00090B583B000AF786002F086F80446FFF766
:101BD000E3FF034623607B6818460C37BD4690BD83
:101BE00080B582B000AF78607B68B3F1FF3F05D16C
:101BF0004FF0FF30FFF7E4FF034600E07B68184634
:101C00000837BD4680BD00BFB0B58AB000AFF860F0
:101C1000B9607A60FB683B61BB687B617B68BB61D4
:101C200006237B6207F110033B627C6A3D6A204613
:101C30002946ABBE0446FC61FB691846FFF7D0FF9E
:101C4000034618462837BD46B0BD00BF80B586B0F4
:101C500000AFF860B9607A60F868FFF7F7FE786166
:101C60007B69002B07D102F037F802460923136085
:101C70004FF0FF3318E07B691B681846B9687A6833
:101C8000FFF7C2FF38613B69B3F1FF3F01D13B6908
:101C90000AE07B695A6879683B69CB1A1A447B6908
:101CA0005A607A683B69D31A18461837BD4680BD1A
:101CB000B0B58EB000AFF860B9607A60F868FFF731
:101CC000C5FE78637B6B002B07D102F005F8024656
:101CD000092313604FF0FF3373E07B68012B0DD0B5
:101CE0007B68002B0AD07B68022B07D001F0F4FF41
:101CF0000246162313604FF0FF3362E07B68012B2E
:101D00001DD17B6B5B68BA681344BB60BB68002B5A
:101D100013DA01F0E1FF0246162313607B6B5B6868
:101D2000002B07DDBB68002B04DD01F0D5FF024668
:101D30008B2313604FF0FF3343E000237B607B680D
:101D4000022B1ED17B6B1B683B610C23FB6207F1EE
:101D50001003BB62FC6ABD6A20462946ABBE04463E
:101D60007C627B6A1846FFF73BFF38633B6BB3F13D
:101D7000FF3F02D14FF0FF3323E0BA683B6B1344BF
:101D8000BB607B6B1B683B61BB687B610A233B626A
:101D900007F11003FB613C6AFD6920462946ABBE92
:101DA0000446BC61BB691846FFF71AFF38633B6BFA
:101DB000002B04DB7B6BBA685A60BB6801E04FF014
:101DC000FF3318463837BD46B0BD00BF80B584B07C
:101DD00000AFF860B9607A60F868B9687A68FFF7B0
:101DE00067FF034618461037BD4680BDB0B58AB0C0
:101DF00000AFF860B9607A60FB683B61BB687B61EB
:101E00007B68BB6105237B6207F110033B627C6A40
:101E10003D6A20462946ABBE0446FC61FB69184674
:101E2000FFF7DEFE034618462837BD46B0BD00BFAB
:101E300080B586B000AFF860B9607A60F868FFF7E7
:101E400005FE78617B69002B07D101F045FF024652
:101E5000092313604FF0FF3321E07B691B681846AC
:101E6000B9687A68FFF7C2FF38613B69002B02DA74
:101E70004FF0FF3313E07B695A6879683B69CB1AEE
:101E80001A447B695A607A683B699A4204D10020FF
:101E9000FFF796FE034602E07A683B69D31A1846BC
:101EA0001837BD4680BD00BFB0B586B000AF7860C2
:101EB00002237B613B1D3B617C693D6920462946CD
:101EC000ABBE0446FC60FB681846FFF789FE03467C
:101ED00018461837BD46B0BD80B584B000AF7860F5
:101EE0007868FFF7B3FDF860FB68002B07D101F0BD
:101EF000F3FE0246092313604FF0FF331FE07B68B7
:101F0000012B02D07B68022B0BD10F4B9A680E4B32
:101F10001B699A4205D1FB684FF0FF321A6000231B
:101F20000DE0FB681B681846FFF7BEFFB860BB6892
:101F3000002B03D1FB684FF0FF321A60BB681846D4
:101F40001037BD4680BD00BF14010020B0B588B079
:101F500000AF786039607868FFF778FDF861FB6959
:101F6000002B07D101F0B8FE0246092313604FF0A1
:101F7000FF3324E03B685B6843F400523B685A60DF
:101F80003B684FF48062DA62FB690C227A613B6144
:101F90007C693D6920462946ABBE0446FC60FB686F
:101FA0001846FFF71DFEB861BB69B3F1FF3F02D1D0
:101FB0004FF0FF3303E03B68BA691A61002318460B
:101FC0002037BD46B0BD00BF80B582B000AF78609D
:101FD0003960386800213C2201F04CFF786839688C
:101FE000FFF7B4FF034618460837BD4680BD00BF63
:101FF000B0B588B000AF78607868FFF727FDF8616A
:10200000FB69002B06D101F067FE0246092313602D
:10201000002319E0FB6909227A613B617C693D6913
:1020200020462946ABBE0446FC60FB68BB61BB6929
:10203000012B01D1012307E001F04EFE0446FFF71A
:10204000ABFD03462360002318462037BD46B0BDD4
:1020500080B582B000AF78603960034879683A682B
:1020600000F004F8FFF7F2FB804D00080FB480B5D4
:1020700082B000AF07F114033B600C4880213A693D
:102080003B6802F03FF878607B68002B05DD7B68D9
:102090000648194600F024F878607B68184608372F
:1020A000BD46BDE8804004B0704700BF3802002044
:1020B00080B582B000AF7860786801F0F2FF034627
:1020C0007868194600F00CF80448012100F008F87F
:1020D000034618460837BD4680BD00BFAC4D00081A
:1020E00080B582B000AF786039607868396800F0F8
:1020F00005F8034618460837BD4680BDB0B590B018
:1021000000AF786039602A4B1B6803F00103002B95
:1021100001D13B6848E07A683B6813441B78002B88
:102120000BD104233B637B68FB623C6BFD6A20465A
:102130002946ABBE0446BC6235E03B68FB632FE03A
:10214000FB6B102B28BF10237B630023BB630DE0C8
:102150007B68197807F10C02BB6B13440A461A70AE
:10216000BB6B0133BB637B6801337B60BA6B7B6BFA
:102170009A42EDD307F10C02BB6B134400221A7094
:1021800004237B6207F10C033B627C6A3D6A2046B4
:102190002946ABBE0446FC61FA6B7B6BD31AFB632A
:1021A000FB6B002BCCD13B6818464037BD46B0BD19
:1021B000F0ED00E080B500AF00F002F880BD00BF98
:1021C00080B400AF124A124B1B6843F00103136046
:1021D0000F4B00229A600E4A0D4B1B6823F084734C
:1021E00023F4803313600A4B0A4A5A60084A084BAA
:1021F0001B6823F480231360054B0022DA60064B32
:102200004FF000629A60BD465DF8047B704700BFE6
:10221000003802401030002400ED00E080B500AF2F
:10222000FFF7CEFFFEF7D4F8FEF722F900F002F830
:1022300080BD00BF80B592B000AF1B4A1A4B1B6C2B
:1022400043F080531364194A184B1B6843F440430E
:10225000136001237B600123BB600223FB614FF409
:1022600080033B6208237B624FF4A873BB620223A6
:10227000FB6207233B633B1D1846FEF7DFFC0F2381
:102280007B630223BB630023FB634FF4A0533B64D7
:102290004FF480537B6407F1340318460521FEF7A1
:1022A000D3FF4837BD4680BD003802400070004073
:1022B00080B500AF054B01221A7000F013FC034BF0
:1022C0001B78012B01D100F003F880BD980000209D
:1022D00080B584B000AF0023FB813B1D184600F0A1
:1022E000D9F9FB79FB721223BB723B79982B15D07D
:1022F000982B02DC202B05D014E0AD2B0AD0EC2B60
:1023000004D00FE07D4B00221A700BE07B4B0222C1
:102310001A7007E0794B03221A7003E0774B012211
:102320001A7000BF0BE07A79FB897549DB000B441A
:102330009B789A4200D107E0FB890133FB81BB7A8D
:102340009BB2FA899A42EED36E4B10221A806E4BE2
:102350004FF400721A806D4B4FF400721A60FB89C3
:10236000674ADB0013445B68694A1360FB89644A6F
:10237000DB0013445A78674B1A70FB89604A12F8E5
:102380003320654B1A70FB89072B09D8634B012258
:102390001A70634B00221A70624B20221A800AE0E6
:1023A000FB89072B06D9FB89112B03D85C4B012233
:1023B0001A7000E0FEE75A4B1B78012B40F0838037
:1023C000FB7A03F03003102B0CD0102B02DC002B17
:1023D00005D012E0202B08D0302B0AD00DE040238E
:1023E000BB810AE08023BB8107E04FF48073BB818F
:1023F00003E04FF40073BB8100BFFB7A03F00303DB
:10240000032B60D801A252F823F000BFC7240008B4
:102410001D24000841240008872400083F4B0022A7
:102420001A70404B4FF480721A803F4B04221A708E
:102430003E4B40221A803E4B4FF400621A8042E02D
:10244000364B01221A70384B08221A70BB899B0840
:102450009AB2354B1B789BB212FB03F39AB2314B05
:102460001A80314B1B789AB2264B1B8812FB03F360
:102470009AB22E4B1A802E4B4FF480521A80254B65
:1024800001221A701FE0284B10221A70BB89DB084A
:102490009AB2254B1B789BB212FB03F39AB2214BE5
:1024A0001A80214B1B789AB2164B1B8812FB03F340
:1024B0009AB21E4B1A801E4B4FF400521A80154BD5
:1024C00001221A7000BF7B79A22B02D07B79F22BFC
:1024D00008D1184B4FF400721A80174B4FF4FA7260
:1024E0001A8007E0134B4FF480621A80124B4FF4AE
:1024F0007A721A801037BD4680BD00BFB902002035
:1025000008000020D82200201E230020CC2200201A
:1025100018230020C8220020D22200209900002089
:10252000B8020020DC220020DA220020D62200207F
:10253000D4220020D02200201C23002080B586B0A9
:1025400000AF4B4A4A4B5B6C43F480435364484AA8
:10255000474B9B6B43F001039363464B7B617B6965
:10256000454A1A607B69454A9A607B69434ADA604A
:102570007B691B6843F004027B691A603C4A3C4B50
:102580001B6B43F008031363394A394B1B6B43F051
:10259000100313634FF4F0633B6002237B6001235D
:1025A000BB600323FB600C233B613B463448194668
:1025B000FEF776F84CF203033B6002237B600123B5
:1025C000BB600323FB600C233B613B462D4819464F
:1025D000FEF766F84FF4C0533B6002237B60012393
:1025E000BB600323FB600C233B613B462548194637
:1025F000FEF756F830233B6002237B600123BB606B
:102600000323FB600C233B613B461E481946FEF743
:1026100047F840233B6002237B600223BB60032317
:10262000FB600C233B613B4616481946FEF738F821
:102630004FF400533B6001237B600123BB60032305
:10264000FB603B460F481946FEF72AF80D4B0E4A31
:102650001A600C4B0D4A9A600A4B0D4ADA60094B1E
:102660004CF2FF721A6100BF1837BD4680BD00BF33
:1026700000380240600000A048E20300F1F3F2F1EC
:1026800000100240000C02400A0A80A60F0FC0FF93
:102690000525405580B485B000AF78600023FB600D
:1026A000124B90221A70124B00221A704FF0E04326
:1026B0001B68FB60FB68DAB27B681A70FB6803F486
:1026C0007F431B0ADAB27B685A70FB6803F47F030E
:1026D0001B0CDAB27B689A70FB681B0EDAB27B685F
:1026E000DA701437BD465DF8047B70470000027055
:1026F0000000017090B58DB000AFF860381D80E823
:1027000006003B600023FB620023BB624FF4807332
:102710007B624023BB6100237B613B891946FB88B8
:102720001A46BB8818465A4B1B8803FB00F3134418
:10273000584A128802FB03F30B443B61564B1B784B
:10274000002B2CD0012B38D09AE0544B50221A7019
:102750003B1D93E8030000F041FB504B30221A7000
:10276000FB6A01331B017B610AE0FA68BB6A134410
:102770004FF0E0421278D2B21A70BB6A0133BB62EA
:10278000BA6A7B699A42F0D3FB6A0133FB623B6809
:10279000013B3B603B1D184600F026F978623B6820
:1027A000002B03D07B6AB3F5807FCED000F080F899
:1027B000B861BA697B6A134365E0394B1B881846D8
:1027C000384B1B881C46384B1B781A463B69B3FBB9
:1027D000F2F102FB01F29B1A03FB04F30344FB61D9
:1027E000314B1B781A463B69B3FBF2F33B6239E08D
:1027F0002A4B00221A70386AF96900F07FFB274BD8
:1028000030221A70FB6A01331B017B610AE0FA680F
:10281000BB6A13444FF0E0421278D2B21A70BB6A1E
:102820000133BB62BA6A7B699A42F0D3FB6A013317
:10283000FB623B68013B3B601A4B1B881A46FB69F5
:102840001344FB61164B1B881A46184B1B88134414
:10285000144A12889B1A1A46FB699A4202D83B6AAC
:1028600001333B623B68002B03D07B6AB3F5807F6A
:10287000BED000F01DF8B861BA697B6A134302E06C
:102880000123BB61BB6918463437BD4690BD00BF0C
:10289000D0220020DC220020B802002000000270BC
:1028A000D4220020D8220020DA220020D6220020C4
:1028B00080B582B000AF4FF0FF337B6040233B60B8
:1028C0001E4B1B78002B02D0012B18D02FE000F0FC
:1028D00037F8386005E000F033F838607B68013B7A
:1028E0007B603B68402B02D07B68002BF3D17B6878
:1028F000002B02D14FF480633B603B681AE000F08C
:102900001FF8386005E000F01BF838607B68013B79
:102910007B603B68402B02D07B68002BF3D17B6847
:10292000002B02D14FF480633B603B6802E001233F
:102930003B603B6818460837BD4680BDB8020020A2
:1029400080B483B000AF00233B6000237B60244B46
:102950001B78002B02D0012B1CD037E0214B7022BA
:102960001A704FF0E0431B78DBB23B603B6803F02A
:102970000103002B02D001237B6009E03B6803F0D8
:102980004003002B02D040237B6001E000237B60EA
:102990007B681EE0134B70221A704FF0E0431B78E7
:1029A000DBB23B603B6803F00103002B02D0012344
:1029B0007B6009E03B6803F04003002B02D040231A
:1029C0007B6001E000237B607B6802E001237B6089
:1029D0007B6818460C37BD465DF8047B704700BF26
:1029E000B80200200000027080B485B000AF7860AB
:1029F0004FF48073FB60374B1B78002B02D0012B08
:102A00002ED05DE07B689B8801339AB27B689A8008
:102A10007B689B88202B21D17B6800229A807B6871
:102A20005B8801339AB27B685A807B685A882A4B4C
:102A30001B889A4212D17B6800225A807B681B88CF
:102A400001339AB27B681A807B681A88234B1B7803
:102A50009BB29A4202D14FF40073FB60FB6832E0F4
:102A60007B689B8801339AB27B689A807B689A88DE
:102A70001B4B1B889A4221D17B6800229A807B687D
:102A80005B8801339AB27B685A807B685A88124B04
:102A90001B889A4212D17B6800225A807B681B886F
:102AA00001339AB27B681A807B681A880B4B1B78BB
:102AB0009BB29A4202D14FF40073FB60FB6802E0C4
:102AC0000123FB60FB6818461437BD465DF8047BA4
:102AD000704700BFB80200201C230020C82200203D
:102AE000DC22002080B485B000AF00237B73A84BAC
:102AF00090221A70A74B20221A700023FB810CE051
:102B0000FB894FF0E0421278D2B207F110010B447A
:102B100003F80C2CFB890133FB81FB89032BEFD9D4
:102B20003B794F2B40F02F817B794E2B40F02B814E
:102B3000BB79462B40F02781FB79492B40F023815C
:102B4000954B00221A70924BEC221A70914B002286
:102B50001A700023FB8109E0FB894FF0E0421278F4
:102B6000D1B28E4AD154FB890133FB81FB89FF2B03
:102B7000F2D900237B7308E07B7B7A7B8749895CF1
:102B8000874AD1547B7B01337B737B7B032BF3D947
:102B900000237B730BE07B7B7A7B20327F49895C4F
:102BA0007F4A13440A461A717B7B01337B737B7B1C
:102BB0000B2BF0D900237B730BE07B7B7A7B2C32D1
:102BC0007649895C764A13440A461A747B7B013342
:102BD0007B737B7B132BF0D9704B93F850301A46E4
:102BE0006E4B93F851301B021A436C4B93F85230E2
:102BF0001B041A43694B93F853301B0613431A46C0
:102C0000674B5A62654B93F854309AB2634B93F812
:102C100055301B029BB213439BB29AB2604B1A858C
:102C20005E4B93F85C301A465C4B93F85D301B02A8
:102C30001A435A4B93F85E301B041A43574B93F8D0
:102C40005F301B0613431A46554BDA62534B93F819
:102C500060301A46514B93F861301B021A434F4BB8
:102C600093F862301B041A434C4B93F863301B06F5
:102C700013431A464A4B1A63484B93F86420484B57
:102C800083F83420454B93F86520454B83F8352075
:102C9000424B93F86620424B83F83620404B93F822
:102CA0003530222B02D13F4B01221A703C4B93F856
:102CB0003530232B02D13B4B02221A70374B9B79C4
:102CC00003F01003002B03D0374B00221A7002E0F0
:102CD000354B01221A70354B01221A70304B5B6A5A
:102CE0005B0ADAB2324B1A70314B1B789AB22C4B1A
:102CF000DB6A9BB212FB03F39AB22E4B1A80284B6D
:102D00001A8D2D4B1A80264B5B6A9AB22B4B1A8078
:102D10002B4B10221A802B4B4FF400721A802A4B37
:102D20004FF400721A601E4B93F834301A461C4B55
:102D30001B6B03FB02F31A4AD26A02FB03F3184A25
:102D4000526A02FB03F2204B1B68B2FBF3F3BB6039
:102D5000BB684FF47A7202FB03F39B0A1B4A1360B1
:102D60000F4B1B6B0E4A92F8342002FB03F39B0AB5
:102D7000DAB2174B1A70174B4FF480621A80164B59
:102D80004FF47A721A801437BD465DF8047B7047A1
:102D9000000002700000017098000020243F002015
:102DA000E0220020D222002099000020B80200205A
:102DB000DA220020DC220020D6220020D4220020AB
:102DC000D82200201E230020CC220020182300201F
:102DD000C8220020D02200201C23002090B482B002
:102DE00000AF3B4683E80300404B1B78002B02D02A
:102DF000012B30D075E03E4B00221A703C48BB8856
:102E0000DAB27B8819463B881C463A4B1B8803FB89
:102E100004F30B44D9B2384B1B88DBB211FB03F32C
:102E2000DBB21344DBB20370314ABB8818467B889F
:102E300019463B881C462F4B1B8803FB04F30B44AD
:102E40002D49098801FB03F3034403F47F431B0A64
:102E5000DBB2137045E0264B00221A702448BB8871
:102E6000DAB27B8819463B881C46224B1B8803FB41
:102E700004F30B44D9B2204B1B88DBB211FB03F3E4
:102E8000DBB21344DBB20370194ABB8818467B8857
:102E900019463B881C46174B1B8803FB04F30B4465
:102EA0001549098801FB03F3034403F47F431B0A1C
:102EB000DBB213700E4ABB8818467B8819463B88E4
:102EC0001C460C4B1B8803FB04F30B440A4909887E
:102ED00001FB03F3034403F47F031B0CDBB2137009
:102EE00000BF0837BD4690BC704700BFD22200200B
:102EF00000000170D0220020DC22002080B483B0CA
:102F000000AF78603960204B1B78012B02D0022B78
:102F100017D034E01D4B3A68D2B21A701B4A3B6896
:102F200003F47F431B0ADBB21370184B7A68D2B2EA
:102F30001A70164A7B6803F47F431B0ADBB21370D6
:102F40001DE0124B3A68D2B21A70104A3B6803F483
:102F50007F431B0ADBB213700C4B7A68D2B21A7033
:102F60000A4A7B6803F47F431B0ADBB21370074AEB
:102F70007B6803F47F031B0CDBB2137000BF0C37BC
:102F8000BD465DF8047B7047D2220020000001702E
:102F900080B58AB000AFF860381D80E806003B605D
:102FA00000237B6200233B624FF48073FB6140236C
:102FB000BB6100237B6154E0324B80221A70324B9C
:102FC00000221A70304B08221A702F493B89DAB25E
:102FD000FB881846BB889B020344DBB29B01DBB233
:102FE0001344DBB20B70284A3B891946FB8818460C
:102FF000BB889B0203449B010B4403F47F431B12D9
:10300000DBB213703B6A01339B017B6109E04FF037
:10301000E041FA687B6A13441B780B707B6A0133CA
:103020007B627A6A7B699A42F1D3164B10221A703E
:1030300000BF16484021FDF7E1FD0346002BF8D004
:10304000FFF736FCB861BB69402B0AD13B6A0133FC
:103050003B623B68013B3B603B1D1846FFF7C4FCED
:10306000F8613B68002B06D0FB69B3F5807F02D185
:10307000BB69402BA0D0BA69FB69134318462837B7
:10308000BD4680BD0000027000000170000C0240CF
:1030900080B58AB000AFF860381D80E806003B605C
:1030A00000237B6200233B624FF48073FB6140236B
:1030B0007B6100233B615DE0374B00221A70374B88
:1030C00000221A70354B08221A7034493B89DAB253
:1030D000FB881846BB889B020344DBB29B01DBB232
:1030E0001344DBB20B702D4A3B891946FB88184606
:1030F000BB889B0203449B010B4403F47F431B12D8
:10310000DBB21370244B30221A7002E0244800F026
:103110006DFF24484021FDF771FD0346002BF5D0DB
:103120000023BB6102E0BB690133BB61BB6942F2B2
:103130000F729342F7DD7B6A01339B013B610AE02A
:10314000FA683B6A13444FF0E0421278D2B21A7028
:103150003B6A01333B623A6A3B699A42F0D37B6A2D
:1031600001337B623B68013B3B603B1D1846FFF728
:103170003BFCF8613B68002B03D0FB69B3F5807F13
:103180009AD0FFF795FB78617A69FB69134318467B
:103190002837BD4680BD00BF0000027000000170EE
:1031A000DC4D0008000C024080B584B000AF7860B0
:1031B000396000F035F800F071F80023FB810DE074
:1031C000FB89FA89D2B20132D1B2134AD154FB89B8
:1031D000124A0021D154FB890133FB81FB89B3F5ED
:1031E000007FEDD300233B810223BB8100237B8141
:1031F000094807F1080393E806000123FFF7C8FE1A
:10320000064807F1080393E806000123FFF740FF93
:103210000523BB81FEE700BF2025002020230020DE
:1032200080B592B000AF1B4A1A4B1B6C43F0805321
:103230001364194A184B1B6843F44043136001237D
:10324000BB610123FB6102233B634FF480037B637B
:103250000823BB634FF4A873FB6302233B6407237B
:103260007B6407F118031846FDF7E8FC0D237B602B
:103270000223BB600023FB604FF4A0533B614FF47B
:1032800080537B613B1D18460521FDF7DDFF483764
:10329000BD4680BD003802400070004080B582B05D
:1032A00000AF0023FB80FFF749F9FFF701F800208A
:1032B00000F00CF80346FB80034B00221A70FB88D9
:1032C00018460837BD4680BD203F002080B582B03B
:1032D00000AF0346FB71FB79184600F0C1FAFB7999
:1032E000184600F005F8002318460837BD4680BD93
:1032F00080B582B000AF0346FB710B4B1B78002BEF
:1033000002D0012B05D009E0FB79184600F00EF839
:1033100004E0FB79184600F0F7F800BF00231846D8
:103320000837BD4680BD00BFB802002080B58CB014
:1033300000AF0346FB710023BB850023FB846E486E
:1033400000214FF4006200F095FD6C4800214FF41D
:10335000006200F08FFD0023FB8536E0FB8D684A9C
:1033600052F8233003F40043002B2BD1FB8D644A29
:1033700052F8233003F40053002B23D1FB8D604A15
:1033800052F82330C3F309035B01FA7952015D4916
:10339000098801FB02F2134407F10802104619469E
:1033A00000F0A8F9BB8D7989544A22F81310BB8D1F
:1033B0005149FA8D21F81320BB8D0133BB85FB8C5D
:1033C0000133FB84FB8D0133FB85FA8D4D4B1B884C
:1033D000013B9A42C2DD00237B8582E000233B85CE
:1033E00075E03B8D454A32F813304FF6FF72934239
:1033F00014BF01230023DBB287F8253097F825306E
:10340000002B0AD03B8D01333C4A32F813304FF683
:10341000FF72934201D1012300E0002387F824309A
:1034200097F82530002B0CD03B8D344A32F813200E
:103430003B8D0133314931F813309A4201D90123D0
:1034400000E0002387F8233097F82430002B03D1C5
:1034500097F82330002B37D03B8D274A32F81330B2
:103460001A46274B53F82230FB613B8D224A32F833
:10347000133019463B8D01331F4A32F813301A4678
:103480001F4B53F822301E4A42F821303B8D013346
:10349000194A32F813301946194AFB6942F82130AB
:1034A0003B8D164A32F813307B833B8D3A8D0132C7
:1034B000124931F81210114A22F813103B8D0133D2
:1034C0000E497A8B21F813203B8D01333B853A8DD1
:1034D000F98C7B8DCB1A013B9A4282DB7B8D0133C9
:1034E0007B857A8DFB8C013B9A42FFF677AF0023F8
:1034F00018463037BD4680BDBC120020BC1A0020E3
:10350000BC020020D022002080B58CB000AF034662
:10351000FB710023FB850023BB850023FB847048DF
:1035200000214FF4006200F0A5FC6E4800214FF42A
:10353000006200F09FFC3CE0FB8D6B4A52F82330A8
:1035400003F40043002B31D1FB8D674A52F823303E
:1035500003F40053002B29D1FB8D634A52F823302A
:10356000C3F30903614A128802FB03F3FA795F4946
:10357000098801FB02F25E49098801FB02F213444B
:1035800007F108021046194600F0DCF8BB8DB98936
:10359000544A22F81310BB8D5149FA8D21F813209B
:1035A000BB8D0133BB85FB8C0133FB84FB8D013369
:1035B000FB85FA8D4E4B1B88013B9A42BCDD0023F4
:1035C0007B8582E000233B8575E03B8D454A32F8E0
:1035D00013304FF6FF72934214BF01230023DBB276
:1035E00087F8253097F82530002B0AD03B8D013322
:1035F0003C4A32F813304FF6FF72934201D1012357
:1036000000E0002387F8243097F82530002B0CD0F9
:103610003B8D344A32F813203B8D0133314931F868
:1036200013309A4201D9012300E0002387F82330A8
:1036300097F82430002B03D197F82330002B37D094
:103640003B8D274A32F813301A46274B53F8223065
:10365000FB613B8D224A32F8133019463B8D013312
:103660001F4A32F813301A461F4B53F822301E4AB5
:1036700042F821303B8D0133194A32F81330194694
:10368000194AFB6942F821303B8D164A32F8133053
:103690007B833B8D3A8D0132124931F81210114A69
:1036A00022F813103B8D01330E497A8B21F8132039
:1036B0003B8D01333B853A8DF98C7B8DCB1A013BD9
:1036C0009A4282DB7B8D01337B857A8DFB8C013BBB
:1036D0009A42FFF677AF002318463037BD4680BDCB
:1036E000BC120020BC1A0020BC020020DC220020FA
:1036F000D022002090B58DB000AF7860396007F11E
:1037000008031846396800F045F807F11003184619
:1037100007F1080393E806000123FEF7EBFF07F12A
:10372000100307F120040FCB84E80F007B681C46D0
:1037300007F120030FCB84E80F0078683437BD46CB
:1037400090BD00BF90B58DB000AF7860396007F1D3
:1037500008031846396800F01DF807F110031846F1
:1037600007F1080393E806000123FEF7C3FF07F102
:10377000100307F120040FCB84E80F007B681C4680
:1037800007F120030FCB84E80F0078683437BD467B
:1037900090BD00BF80B485B000AF78603960002371
:1037A000BB600023BB812B4B1B78002B02D0012B6D
:1037B0001DD040E03B689BB203F01F039BB2BB816E
:1037C0003B685B099BB27B8100233B8109E07A89DE
:1037D000214B1B88D31A9BB27B813B8901339BB25F
:1037E0003B817A891C4B1B889A42F0D223E01B4B09
:1037F0001B88013B9AB23B689BB213409BB2BB81D2
:10380000164B1B881A463B68B3FBF2F39BB27B81D5
:1038100000233B8109E07A890F4B1B88D31A9BB2A6
:103820007B813B8901339BB23B817A890A4B1B88A0
:103830009A42F0D200BF7B681A4607F10803186865
:1038400010609B88938078681437BD465DF8047BD0
:10385000704700BFB8020020D0220020DC220020E8
:1038600080B582B000AF0346FB710B4B1B78002B79
:1038700002D0012B05D009E0FB79184600F00EF8C4
:1038800004E0FB79184600F0F3F800BF0023184667
:103890000837BD4680BD00BFB802002090B58FB08C
:1038A00000AF0346FB7500233B8607E03B8E6C4A66
:1038B000002142F823103B8E01333B86694B1B8865
:1038C0003A8E9A42F2D3674B1B88013B7B860023DA
:1038D0003B8659E03B8E5A01FB7D5B0161490988BB
:1038E00001FB03F313441A4607F11C031846114663
:1038F000FFF700FF97F82030002B0ED097F821300B
:10390000002B0AD0BB8B184600F0CCF903461846B2
:1039100000F0A2F90346002B16D07B8E5A1E7A8641
:1039200019461A464E4B53F822203B8E1A434E4BF3
:1039300013434B4A42F821304C4B1B887A8E9A42F3
:1039400001D1012387E01CE0BB8B4FF6FF7293424D
:1039500017D0BB8B184600F0A5F903465B089BB255
:10396000C3F30903BB85BA8DBB8D3D4951F82310C4
:103970003B8E0B436FEA83436FEA9343384941F828
:1039800022303B8E01333B86364B1B883A8E9A425F
:10399000A0D30023FB860023BB860023FB8554E0D5
:1039A000FB8E2F4A52F82330002B48D141E0BB8ECA
:1039B0005A01FB7D5B012B49098801FB03F313448A
:1039C0001A463B4618461146FFF794FE07F11C04C1
:1039D0003B460FCB84E80F0097F82030FF2B25D112
:1039E000BB8B4FF6FF72934220D1BB8B184600F081
:1039F00059F90346184600F02FF90346002B15D15C
:103A0000FA8EFB8E164951F82310BB8E0B436FEADA
:103A100003436FEA1343124941F82230BB8E01334E
:103A2000BB86FB8E0133FB8600BF0BE0BB8E0133F0
:103A3000BB860C4B1B88BA8E9A42B8D302E0FB8E31
:103A40000133FB86FB8D0133FB85064B1B88FA8D0A
:103A50009A42A5D3002318463C37BD4690BD00BF0F
:103A6000BC020020D02200200020FFFF1C230020E9
:103A700090B58FB000AF0346FB7500233B8607E08F
:103A80003B8E704A002142F823103B8E01333B8667
:103A90006D4B1B883A8E9A42F2D36B4B1B88013BCD
:103AA0007B8600233B865DE03B8E684A128802FBE2
:103AB00003F2FB7D6549098801FB03F3624909882C
:103AC00001FB03F313441A4607F11C031846114681
:103AD000FFF738FE7B7F002B0DD03B7F002B0AD0F9
:103AE000FB8B184600F0DEF80346184600F0B4F8E9
:103AF0000346002B16D07B8E5A1E7A8619461A462C
:103B0000504B53F822203B8E1A43514B13434D4ADE
:103B100042F821304F4B1B887A8E9A4201D1012303
:103B20008CE01CE0FB8B4FF6FF72934217D0FB8BAF
:103B3000184600F0B7F803465B089BB2C3F30903CD
:103B4000BB85BA8DBB8D3F4951F823103B8E0B438B
:103B50006FEA83436FEA93433A4941F822303B8E40
:103B600001333B86384B1B883A8E9A429CD3002304
:103B7000FB860023BB860023FB8559E0FB8E314A80
:103B800052F82330002B4DD146E0BB8E2F4A1288CD
:103B900002FB03F2FB7D2D49098801FB03F32A494F
:103BA000098801FB03F313441A463B4618461146A5
:103BB000FFF7C8FD07F11C043B460FCB84E80F005C
:103BC0007B7FFF2B25D1FB8B4FF6FF72934220D1D9
:103BD000FB8B184600F066F80346184600F03CF8E8
:103BE0000346002B15D1FA8EFB8E164951F823108F
:103BF000BB8E0B436FEA03436FEA1343114941F84D
:103C00002230BB8E0133BB86FB8E0133FB8600BFA7
:103C10000BE0BB8E0133BB860B4B1B88BA8E9A42DE
:103C2000B3D302E0FB8E0133FB86FB8D0133FB85B2
:103C3000054B1B88FA8D9A42A0D3002318463C37C7
:103C4000BD4690BDBC020020D0220020DC22002016
:103C50000020FFFF1C23002080B485B000AF034686
:103C6000FB800023FB730023BB730023FB730EE078
:103C7000FA88FB7B42FA03F303F00103002B03D025
:103C8000BB7B83F00103BB73FB7B0133FB73FB7BCB
:103C90000F2BEDD9BB7B18461437BD465DF8047B6E
:103CA000704700BF80B485B000AF0346FB80FB883F
:103CB000FB73FB881B0A9BB2BB73FB7B9BB21B0293
:103CC0009AB2BB7B9BB213449BB218461437BD46D5
:103CD0005DF8047B704700BF014B1868704700BF58
:103CE00000010020014900F0A7B800BFF14300081F
:103CF000002310B5044603604360836081814366FE
:103D0000C28103614361836119465C30082200F07F
:103D1000B1F8054B6362054BA362054BE362054BAB
:103D20002462236310BD00BF1D4000083F4000080F
:103D3000774000089B40000870B568234D1E5D4326
:103D40000E4605F1740100F09DF8044640B10021D3
:103D500080E842000C30A06005F1680200F08AF8AB
:103D6000204670BD836910B5044633BB8364C364C9
:103D70000365124B124A1B688262984204BF0123FA
:103D8000836100F01FF86060204600F01BF8A0601F
:103D9000204600F017F80421E06000226068FFF779
:103DA000A7FFA06809210122FFF7A2FFE068122106
:103DB0000222FFF79DFF0123A36110BD4C4F0008B5
:103DC000E53C0008F8B51B4B1E68B369074613B9FC
:103DD0003046FFF7C7FF4836B4687368013B04D428
:103DE000B4F90C5075B16834F8E733682BB938462C
:103DF0000421FFF7A1FF306008B13668ECE70C231F
:103E00003B60F8BD4FF6FF73E3810123A381656634
:103E10002560A560656025616561A56104F15C00B0
:103E20002946082200F026F86563A563A564E564C9
:103E30002046F8BD4C4F00082DE9F84380468946DE
:103E400000F14804002694B1A5686768013F0CD4CE
:103E5000AB89012B07D9B5F90E30013303D04046A9
:103E60002946C84706436835F0E72468EBE7304643
:103E7000BDE8F88302440346934202D003F8011BD5
:103E8000FAE7704770B5CC1C24F0030408340C2CFE
:103E900038BF0C24002C064603DA0C2333600020C4
:103EA00070BD8C42F9D3204A136810461946A1B15F
:103EB0000A68121B0ED40B2A03D90A608B188C5087
:103EC0001FE08B420DBF5A684A685A60026018BFF3
:103ED0000B4616E00B464968E9E7144D2B681BB901
:103EE000304600F08BF828603046214600F086F816
:103EF000421C0346D1D0C51C25F0030585420AD1DA
:103F00001C6003F10B001A1D20F00700821A0AD072
:103F10005142995070BD3046E91A00F06FF80130F7
:103F2000BBD02B46ECE770BDC0220020BC22002095
:103F300070B50E46054618B183690BB9FFF712FF3D
:103F4000AC68A389190701D5236983B9284621469E
:103F500000F04EF958B14FF0FF3070BD002B0EDB72
:103F6000236816F8012C1A70236801332360A368B4
:103F700016F8012B013BA360002AEFD116E0A269DD
:103F8000934209DB236816F8012C1A70236819780C
:103F90000A29EAD1284602E016F8011C28462246E2
:103FA00000F0C0F8421C50425041D3E7002B15DA14
:103FB000A269934208DB23680A221A7023681978E1
:103FC00091420FD1284601E028460A21224600F0FE
:103FD000A9F8431C5842584130B1BCE723680A2273
:103FE0001A702368013323600A2070BD024B01461A
:103FF0001868FFF79DBF00BF0001002038B5064CD0
:104000000023054608462360FDF72AFC431C02D125
:10401000236803B12B6038BDC422002010B50C46C4
:10402000B1F90E1000F08EFD0028ABBF636DA389BF
:104030001B1823F48053ACBF6365A38110BD2DE929
:10404000F0411D468B89DB0507460C46164605D513
:10405000B1F90E100022022300F0F4F9A389B4F99B
:104060000E1023F48053A381384632462B46BDE818
:10407000F04100F0ABB810B50C46B1F90E1000F0ED
:10408000E1F9431CA38915BF606523F4805343F411
:104090008053A38118BFA38110BDB1F90E1000F0A9
:1040A00013B9034613F8012B002AFBD1181A013863
:1040B000704730B5141E9BB0054604DA8B230360AD
:1040C0004FF0FF301CE04FF40272ADF80C2014BF2B
:1040D00004F1FF322246029205924FF6FF720091E0
:1040E0000491ADF80E2069461A461E9B00F0A8FA0E
:1040F000431CBCBF8B232B6014B1009B00221A70A1
:104100001BB030BD73B50093054B06460D461446F3
:10411000186831462A462346FFF7CBFF02B070BD30
:104120000001002070B50D461446064618B183699B
:104130000BB9FFF717FE224B9C4201D1746808E0CF
:10414000204B9C4201D1B46803E01F4B9C4208BF46
:10415000F468A369A360A3891A0709D523693BB151
:1041600023682069181A63699842EDB20FDB08E0F2
:104170003046214600F03CF80028F1D04FF0FF30E7
:1041800070BD3046214600F033F90028F6D1A3680F
:10419000013BA36023685A1C22601D7063690130D3
:1041A000984204D0A389DB0707D50A2D05D13046F4
:1041B000214600F01DF90028E0D1284670BD00BF5F
:1041C000E84E0008084F0008284F000838B5074C93
:1041D000054600202060084611461A46FDF728FED5
:1041E000431C02D1236803B12B6038BDC4220020D8
:1041F000314B70B51D6806460C4625B1AB6913B945
:104200002846FFF7AFFD2D4B9C4201D16C6808E0BA
:104210002B4B9C4201D1AC6803E02A4B9C4208BF67
:10422000EC68A3899AB211071DD4D50602D40922DD
:10423000326038E0500712D5616B41B104F144039C
:10424000994202D0304600F05DF900236363A389F0
:1042500023F02403A3810023636023692360A389DF
:1042600043F00803A38123694BB9A38903F42073A6
:10427000B3F5007F03D03046214600F0F5F8A3895E
:1042800013F0010205D00022A26062695242A261CD
:1042900003E0990758BF6269A26022694AB903F036
:1042A000800080B230B143F04003A3814FF0FF3073
:1042B00070BD002070BD00BF00010020E84E000866
:1042C000084F0008284F000838B5064C0023054663
:1042D00008462360FDF700FE431C02D1236803B1AA
:1042E0002B6038BDC42200208A892DE9F0410546A3
:1042F00010070C4657D44B68002B02DC0B6C002BCC
:1043000018DDE66AB6B102F48052002392B22F683B
:104310002B600AB1626D10E0216A28460123B04784
:10432000411C024609D12B683BB11D2B01D0162B35
:1043300047D12F600020BDE8F081A3895B0705D538
:104340006368D21A636B0BB1236CD21AE66A216AD6
:1043500000232846B047461CA38905D12A681AB114
:104360001D2A01D0162A19D100226260D9042269BF
:10437000226004D5421C01D12B6803B96065616BD2
:104380002F600029D6D004F14403994202D0284678
:1043900000F0B8F800206063BDE8F08143F040030E
:1043A000A381BDE8F0810F69002FC3D093070E6889
:1043B00008BF4B690F6018BF0023C7EB06088B606E
:1043C00012E0A38943F04003A3814FF0FF30BDE822
:1043D000F0812846216AA66A3A464346B04700283B
:1043E000EFDD0744C0EB0808B8F1000FF1DCA1E7EE
:1043F00038B50B6905460C46DBB118B183690BB9BA
:10440000FFF7B0FC0C4B9C4201D16C6808E00B4BF1
:104410009C4201D1AC6803E0094B9C4208BFEC68A8
:10442000B4F90C302BB128462146BDE83840FFF7DF
:104430005BBF002038BD00BFE84E0008084F0008F1
:10444000284F000838B5074C054600202060084674
:1044500011461A46FDF7BAFC431C02D1236803B18A
:104460002B6038BDC4220020F0B58B899D0791B028
:1044700006460C4626D4B1F90E10002909DAA389A4
:1044800013F0800F4FF0000514BF40274FF48067F2
:104490000DE001AA00F068FB0028F0DB029D05F4A6
:1044A0007045A5F500514D424D414FF480673046AF
:1044B0003946FFF7E7FC60B9A3899A051DD443F09C
:1044C0000203A38104F14703236023610123636195
:1044D00013E00B4BB362A389206043F08003A381F8
:1044E000206167614DB13046B4F90E1000F04EFB0B
:1044F00018B1A38943F00103A38111B0F0BD00BF3F
:10450000E53C000830B500293DD051F8042C0B1FC4
:104510001D49002AB8BF9B180A680C4612B95A6098
:104520000B6030BD93420DD219685818904201BFFC
:104530005A5852181A6042685A60236030BD994236
:1045400003D80A4651680029F9D1146815199D420B
:104550000AD11B682344D0188842136013D108681D
:10456000034413604B680DE002D90C23036030BD97
:104570001C681819884204BF08684968596004BF5C
:1045800000191860536030BDC02200202DE9F047AB
:104590008E68B34282460C469046994640D38A893B
:1045A00012F4906F3AD0256809696F1A6569022381
:1045B00005EB450595FBF3F57B1C4B449D4238BF4D
:1045C0001D4653050FD52946FFF75CFC064698B1FA
:1045D00021693A4600F0F9FAA38923F4906343F085
:1045E0008003A38113E02A4600F015FB064670B94C
:1045F00050462169FFF786FF0C23CAF80030A389D3
:1046000043F04003A3814FF0FF30BDE8F0872661FF
:1046100065613E44ED1B2660A5604E46B14500D263
:104620004E4632462068414600F0DAFAA3689B1BEA
:10463000A36023681E4426600020BDE8F0870000C8
:104640002DE9F0439DB0064603938B891C060D4669
:1046500090460CD50B6953B94021FFF713FC286035
:10466000286110B90C233360CCE040236B61002338
:10467000099320238DF8293030238DF82A304346C2
:104680001C4613F8012B1AB9B4EB08090FD002E04D
:10469000252AF5D1F8E73046294642464B46FFF732
:1046A00075FF013000F0A980099B4B4409932378E2
:1046B000002B00F0A28000234FF0FF3204930793F9
:1046C000059206938DF853301A9304F1010844467D
:1046D000DFF8489121784846052200F067FA08F192
:1046E0000108049B30B1C9EB000001228240134352
:1046F0000493ECE7D80644BF20228DF85320190715
:1047000044BF2B228DF8532022782A2A02D0079901
:1047100023460EE0039A111D12680391002ABBBFC5
:10472000524243F0020307920792B8BF0493013448
:104730000AE01C4601332278303A092A03D80A20BD
:1047400000FB0121F5E7079123782E2B1AD163781E
:104750002A2B0AD1039B1A1D1B680392002BB8BF9A
:104760004FF0FF33023405930CE0611C00220C462D
:1047700001312378303B092B03D80A2000FB023299
:10478000F5E70592DFF8988021784046032200F093
:104790000DFA38B1049AC8EB00004023834013435C
:1047A0000493013421781A488DF82810062204F168
:1047B000010800F0FBF988B1164B33B9039B0733AE
:1047C00023F007030833039313E003AB0093304651
:1047D00004A92A46104BAFF3008007E003AB009317
:1047E000304604A92A460C4B00F092F8421C0746BA
:1047F00003D0099B3B44099341E7AB895B0601D495
:10480000099801E04FF0FF301DB0BDE8F08300BF14
:104810005A4F0008000000008D450008504F000866
:10482000564F00082DE9F84391461F468A680B69E8
:10483000DDF820809342B8BF1346C9F8003091F8E4
:10484000432006460C4612B10133C9F800302368F4
:10485000990642BFD9F800300233C9F80030256804
:1048600015F006051CD094F843302268003318BFB9
:10487000012392061FD5E1185A1C302081F843000D
:10488000224494F8451082F84310023313E0304676
:10489000394604F119020123C047013007D0013520
:1048A000E368D9F800209B1A9D42F0DBDBE74FF06C
:1048B000FF30BDE8F8833046394604F14302C04773
:1048C0000130F4D02268D9F80050E36802F0060203
:1048D000042A08BF5D1B2269A3680CBF25EAE575A1
:1048E00000259342C4BF9B1AED184FF00009A9455B
:1048F0000ADA3046394604F11A020123C047013072
:10490000D5D009F10109F2E70020BDE8F8830000E5
:104910002DE9FF410C461746227E6E2A9846064630
:104920000A9B01F1430100F0A98012D8632A23D029
:104930000AD8002A00F0B680582A40F0C58084F8D2
:104940004520DFF8F8E151E0642A1ED0692A1CD026
:10495000BAE0732A00F0AA8009D86F2A2BD0702AF7
:1049600040F0B280226842F02002226039E0752ACD
:1049700021D0782A35D0A7E01A68111D1960136874
:1049800084F8423004F14205A2E020681A6810F071
:10499000800F03D0101D1860136805E04506F9D597
:1049A000101D1860B2F90030002B3BDA2D225B425B
:1049B00084F8432036E020681A6810F0800F03D096
:1049C000101D1860136804E04006F9D5101D18602A
:1049D0001388227EDFF864E16F2A0CBF08220A22C6
:1049E0001CE07822DFF858E184F845202268186836
:1049F00012F0800F00F104051D6001D0036802E091
:104A00005506FBD50388D00744BF42F02002226040
:104A10001BB9226822F0200222601022002084F8B4
:104A2000430002E0DFF814E10A226568A560002D6A
:104A3000A2BF206820F00400206003B965B10D46D4
:104A4000B3FBF2F002FB10331EF8033005F8013D12
:104A500003460028F4D100E00D46082A0BD1236854
:104A6000DA0708D5236962689A42DEBF302305F869
:104A7000013C05F1FF35491B21612EE025681A68CC
:104A8000606915F0800F03D0151D1D60136808E0E4
:104A900015F0400F02F104051D60136801D0188065
:104AA00000E01860002323610D4616E01A68111D0E
:104AB0001960156862682846002100F077F808B18F
:104AC000401B6060636804E004F1420584F8422002
:104AD00001232361002384F84330CDF80080304661
:104AE000214603AA3B46FFF79DFE013002D14FF05D
:104AF000FF301FE0304639462A462369C04701305F
:104B0000F5D023689B0705D4E068039B9842B8BFA3
:104B100018460FE00025E368039A9B1A9D42F3DADA
:104B20003046394604F119020123C0470130DED076
:104B30000135F0E704B0BDE8F08100BF614F000827
:104B4000724F000838B5074C054600202060084623
:104B500011461A46FDF77AF8431C02D1236803B1C7
:104B60002B6038BDC422002038B5074C0023054611
:104B7000084611462360FDF727FA431C02D123683B
:104B800003B12B6038BD00BFC422002038B5064CED
:104B90000023054608462360FDF72AFA431C02D18C
:104BA000236803B12B6038BDC422002010B5C9B200
:104BB00002449042034606D01C788C4200F101006A
:104BC000F7D1184610BD002010BD10B5431E0A4491
:104BD000914204D011F8014B03F8014FF8E710BDE2
:104BE000814210B501EB020301D3421E0BE0984253
:104BF000FBD28118D21AD34204D013F8014D01F828
:104C0000014DF8E710BD994204D011F8014B02F8AC
:104C1000014FF8E710BDF8B5074615460E4621B915
:104C20001146BDE8F840FFF72DB91AB9FFF76AFC45
:104C30002846F8BD00F015F8A8420ED2384629469D
:104C4000FFF720F9044650B131462A46FFF7BDFF71
:104C500038463146FFF756FC01E03046F8BD2046A5
:104C6000F8BD51F8040C0028BEBF091851F8043CE7
:104C7000C0180438704700002E2E2F7379737465A6
:104C80006D2F7372632F73746D333266342D6861C8
:104C90006C2F73746D3332663478785F68616C5F43
:104CA000636F727465782E63000000002E2E2F73E0
:104CB000797374656D2F7372632F73746D333266FD
:104CC000342D68616C2F73746D3332663478785F7D
:104CD00068616C5F6770696F2E6300000000000000
:104CE0000102030401020304060708092E2E2F7394
:104CF000797374656D2F7372632F73746D333266BD
:104D0000342D68616C2F73746D3332663478785F3C
:104D100068616C5F7263632E6300000061626F7292
:104D20007428292C2065786974696E672E2E2E00F0
:104D30003A7474002F746D70000000002C206675AA
:104D40006E6374696F6E3A2000000000000000007E
:104D5000617373657274696F6E20222573222066F9
:104D600061696C65643A2066696C6520222573224E
:104D70002C206C696E65202564257325730A00005C
:104D80006173736572745F706172616D282920664A
:104D900061696C65643A2066696C6520222573221E
:104DA0002C206C696E652025640A00000A00000052
:104DB0006D61696E28617267633D25642C206172A4
:104DC00067763D5B000000002C2000002225732246
:104DD000000000005D293B0A000000007761697453
:104DE0000000000000202020202020202020282853
:104DF000282828202020202020202020202020209B
:104E000020202020208810101010101010101010DA
:104E1000101010101004040404040404040404100A
:104E20001010101010104141414141410101010198
:104E30000101010101010101010101010101010162
:104E4000101010101010424242424242020202026E
:104E50000202020202020202020202020202020232
:104E600010101010200000000000000000000000E2
:104E70000000000000000000000000000000000032
:104E80000000000000000000000000000000000022
:104E90000000000000000000000000000000000012
:104EA0000000000000000000000000000000000002
:104EB00000000000000000000000000000000000F2
:104EC00000000000000000000000000000000000E2
:104ED00000000000000000000000000000000000D2
:104EE00000000000000000000000000000000000C2
:104EF00000000000000000000000000000000000B2
:104F000000000000000000000000000000000000A1
:104F10000000000000000000000000000000000091
:104F20000000000000000000000000000000000081
:104F30000000000000000000000000000000000071
:104F4000000000000000000043000000A00000205E
:104F5000232D302B2000686C4C0065666745464762
:104F600000303132333435363738394142434445E5
:104F70004600303132333435363738396162636454
:034F800065660063
:104F8400785634120024F40000013300007D000040
:104F940000017300007D00000002350000FA0000EB
:104FA4000002750000FA00000104360000F401005C
:104FB4000104760000F401000108390000E8030050
:104FC4000108790000E803000101A20000F40100D7
:104FD4000101F20000F401000101A10000E8030056
:104FE4000101F10000E803000202AA0000D007005A
:104FF4000202DA0000D007000204AC0000A00F0097
:105004000204DC0000A00F000208A30000401F00FF
:105014000208D30000401F0001010000E44D000815
:1050240000000000E84E0008084F0008284F000860
:10503400000000000000000000000000000000006C
:10504400484F0008000000000000000000000000BD
:10505400000000000000000000000000000000004C
:10506400000000000000000000000000000000003C
:10507400000000000000000000000000000000002C
:08508400A000002032547698D0
:040000050800018965
:00000001FF
